:100000000C9472000C949A000C949A000C949A0030
:100010000C949A000C949A000C949A000C94EE099B
:100020000C949A000C949A000C949A000C949A00E8
:100030000C949A000C949A000C949A000C949A00D8
:100040000C94CA030C949A000C94DD060C940F07D0
:100050000C949A000C949A000C949A000C949A00B8
:100060000C949A000C949A004D02C1036602C103DD
:100070009902C103C502C1030403C1033703C103CD
:100080006503C103A603000000080002010000038D
:100090000407000000000000000001020408102016
:1000A000408001020408102001020408102004040A
:1000B0000404040404040202020202020303030310
:1000C00003030000000023002600290000000000B8
:1000D000250028002B0000000000240027002A0033
:1000E00002003F0711241FBECFEFD8E0DEBFCDBF17
:1000F00011E0A0E0B1E0E2EAF5E102C005900D9266
:10010000A231B107D9F722E0A2E1B1E001C01D920E
:10011000A033B207E1F710E0C4EED0E004C02297AC
:10012000FE010E94B10AC23ED107C9F70E944B0AE4
:100130000C94CF0A0C940000DC01ED91FC9101902D
:10014000F081E02D0994DC01ED91FC910190F081AA
:10015000E02D099426E040E052EC61E070E08EE78B
:1001600091E00C947B06CF92DF92EF92FF920F9377
:100170001F93CF93DF936B018C01C0E0D0E0E0E0F0
:10018000F0E020E030E0EE24EA94F12CCC15DD051F
:1001900099F0D8018D918D01A901480F511DCA0117
:1001A000B7010E945A0A9C018E0F9F1FB7010E943F
:1001B0005A0AFC012196EACF9E2F8827822B932B87
:1001C000DF91CF911F910F91FF90EF90DF90CF9033
:1001D00008956FEE8EE791E00E9416066FEE8EE7AF
:1001E00091E00E9416066FEE8EE791E00E941606DF
:1001F0008EE791E00C94F4058F929F92AF92BF929C
:10020000CF92DF92EF92FF92CF93DF93C82F4A01F4
:100210005B010E9414046B017C01D0E08EE791E049
:100220000E9498058C179D075CF40E9414046C19B9
:100230007D098E099F09681579058A059B0570F36C
:100240008EE791E00E9498058C179D0724F40E9488
:10025000E90080E001C081E0DF91CF91FF90EF9055
:10026000DF90CF90BF90AF909F908F9008951F9395
:10027000CF93DF93E5E3F1E0119281E0E537F807F2
:10028000D9F78EE791E00E9498050497D0F38EE7A6
:1002900091E00E94B105809332018F3F09F076C250
:1002A0008EE791E00E94B105809332018E3F09F004
:1002B0006DC28EE791E00E94B105809332018D3FBF
:1002C00009F064C28EE791E00E94B105809332018B
:1002D0008C3F09F05BC26CEF70E08EE791E00E940A
:1002E000A3006DEF70E08EE791E00E94A3006EEF37
:1002F00070E08EE791E00E94A3006FEF70E08EE760
:1003000091E00E94A3008EE791E00E94F4054AEF7D
:1003100050E060E070E083E00E94FC00882309F474
:1003200035C28EE791E00E94B1058B3F910509F03F
:100330002DC28EE791E00E94B105809334018EE7D3
:1003400091E00E94B10580933301682F8EE791E020
:100350000E941606609134018EE791E00E94160615
:100360006BEF8EE791E00E9416068EE791E00E9407
:10037000F4058091330148EE53E060E070E08C5F5B
:100380000E94FC00882309F401C2C5E3D1E020915A
:10039000330130E0C9010396AE0145535140841743
:1003A000950734F08EE791E00E94B1058993EFCF75
:1003B000F901EB5CFE4F228120933101FC01EB5CE3
:1003C000FE4F80818093300148EE53E060E070E0A2
:1003D00081E00E94FC00882309F4D8C18EE791E0F7
:1003E0000E94B1058A3F910509F0D0C110913301F7
:1003F000612F70E06E5F7F4F85E391E00E94B30054
:1004000090932F0180932E01EC01DD27D0932D01D5
:10041000C0932C01892F992790932B0180932A0157
:100420008C0F9D1F2FEF30E0B9010E945A0AF9018D
:10043000E81BF90BF0932901E0932801CF018C0F01
:100440009D1FB9010E945A0A281B390B30932701BE
:10045000209326018091310190E0E817F90709F017
:1004600090C18091300190E02817390709F089C1C7
:100470008091340190913501891383C190913601A7
:1004800019137FC190E0FC013197EF30F10508F0BE
:1004900078C1EC5CFF4F0C94AF0A69EF8EE791E0F6
:1004A0000E94160663E070E08EE791E00E94A300D0
:1004B00062E08EE791E00E94160661E070E08EE750
:1004C00091E00E949C0060E070E028C083E090E032
:1004D00090932501809324010E946F059093210140
:1004E0008093200169EF8EE791E00E94160663E099
:1004F00070E08EE791E00E94A30064E08EE791E057
:100500000E94160660912401709125018EE791E00A
:100510000E949C0060912001709121018EE791E082
:100520000E949C008EE791E0DF91CF911F910C9487
:10053000F40580913701282F30E030932301209378
:1005400022012091380130E03093210120932001D5
:10055000232B19F460E00E943905809120019091CD
:100560002101019729F461E0809122010E9439055F
:1005700069EF8EE791E00E94160663E070E08EE777
:1005800091E00E94A30066E036C080913701282FD9
:1005900030E030932301209322012091380130E094
:1005A0003093210120932001232B19F460E00E9455
:1005B00000058091200190912101019729F462E0CA
:1005C000809122010E9400058091200190912101DB
:1005D000029729F461E0809122010E94000569EFF1
:1005E0008EE791E00E94160663E070E08EE791E0EE
:1005F0000E94A30068E08EE791E00E9416066091D9
:1006000022017091230182CF80913701282F30E0A1
:1006100030931F0120931E010E945B0490931901E7
:100620008093180169EF8EE791E00E94160664E05E
:1006300070E08EE791E00E94A3006AE08EE791E00F
:100640000E94160660911E0170911F018EE791E0D5
:100650000E949C006091190170E08EE791E00E9479
:100660009C006091180170911901772757CF8091F4
:100670003701282F30E030931D0120931C01609139
:10068000380170E070931B0160931A010E94780496
:1006900069EF8EE791E00E94160663E070E08EE756
:1006A00091E00E94A3006CE08EE791E00E941606A4
:1006B00060911C0170911D018EE791E00E949C00E9
:1006C00060911A0170911B0129CF80913701282F69
:1006D00030E030932301209322016091380170E0D3
:1006E000762F662790913901690F711D709317015C
:1006F0006093160120913C0130E0322F2227909127
:100700003D01290F311D442737FD4095542F20937B
:1007100012013093130140931401509315012115D8
:1007200031054105510519F420E030E0A9010E948E
:10073000AA0769EF8EE791E00E94160661E070E07B
:100740008EE791E00E94A3006EE016C08091370111
:10075000282F30E030932301209322010E94D909F1
:1007600069EF8EE791E00E94160661E070E08EE787
:1007700091E00E94A30060E18EE791E00E941606DE
:10078000D1CEDF91CF911F910C94E900DF91CF91F1
:100790001F9108951F920F920FB60F9211242F935D
:1007A0003F938F939F93AF93BF93809176019091E6
:1007B0007701A0917801B09179013091750123E022
:1007C000230F2D3720F40196A11DB11D05C026E889
:1007D000230F0296A11DB11D209375018093760110
:1007E00090937701A0937801B093790180917A0179
:1007F00090917B01A0917C01B0917D010196A11D9A
:10080000B11D80937A0190937B01A0937C01B093FA
:100810007D01BF91AF919F918F913F912F910F904B
:100820000FBE0F901F9018952FB7F8946091760126
:100830007091770180917801909179012FBF08958F
:10084000789484B5826084BD84B5816084BD85B5AB
:10085000826085BD85B5816085BDEEE6F0E0808172
:1008600081608083E1E8F0E0108280818260808393
:10087000808181608083E0E8F0E080818160808316
:10088000E1EBF0E0808184608083E0EBF0E0808148
:1008900081608083EAE7F0E08081846080838081EA
:1008A0008260808380818160808380818068808392
:1008B0001092C10008958E3008F08E5087702091FC
:1008C000000190E4299F90011124822B80937C00E9
:1008D00080917A00806480937A0080917A0086FD0E
:1008E000FCCF809178002091790090E0922B0895C0
:1008F0001F93CF93DF93182FEB0161E00E94000557
:10090000209711F460E004C0CF3FD10539F461E0D5
:10091000812FDF91CF911F910C943905E12FF0E0E9
:10092000EA57FF4FE491E330F9F048F4E130B9F0D1
:10093000E230A1F584B5806284BDC8BD34C0E73023
:10094000E9F0E83019F1E43049F5809180008062E7
:1009500080938000D0938B00C0938A0024C084B51C
:10096000806884BDC7BD1FC080918000806880936F
:100970008000D0938900C093880015C08091B0009A
:1009800080688093B000C093B3000DC08091B00028
:1009900080628093B000C093B40005C0C038D10518
:1009A0000CF0B5CFAFCFDF91CF911F910895833079
:1009B00081F028F4813099F08230A1F008958730D9
:1009C000A9F08830B9F08430D1F4809180008F7D17
:1009D00003C0809180008F7780938000089584B554
:1009E0008F7702C084B58F7D84BD08958091B0005B
:1009F0008F7703C08091B0008F7D8093B000089501
:100A0000CF93DF9390E0FC01E656FF4F2491FC0169
:100A1000E255FF4F8491882349F190E0880F991F98
:100A2000FC01EA52FF4FA591B49184539F4FFC0102
:100A3000C591D4919FB7611108C0F8948C9120950D
:100A400082238C93888182230AC0623051F4F89407
:100A50008C91322F309583238C938881822B8883CD
:100A600004C0F8948C91822B8C939FBFDF91CF911F
:100A700008950F931F93CF93DF931F92CDB7DEB7E7
:100A8000282F30E0F901EA57FF4F8491F901E6562B
:100A9000FF4F1491F901E255FF4F04910023C9F073
:100AA000882321F069830E94D7046981E02FF0E058
:100AB000EE0FFF1FE453FF4FA591B4919FB7F89439
:100AC0008C91611103C01095812301C0812B8C93FF
:100AD0009FBF0F90DF91CF911F910F910895CF93FA
:100AE000DF93282F30E0F901EA57FF4F8491F90195
:100AF000E656FF4FD491F901E255FF4FC491CC2344
:100B000091F081110E94D704EC2FF0E0EE0FFF1F4F
:100B1000EE53FF4FA591B4912C912D2381E090E0ED
:100B200021F480E002C080E090E0DF91CF91089551
:100B3000FC01818D228D90E0805C9F4F821B91098A
:100B40008F7399270895FC01918D828D981731F04C
:100B5000828DE80FF11D858D90E008958FEF9FEF56
:100B60000895FC01918D828D981761F0828DDF01CF
:100B7000A80FB11D5D968C91928D9F5F9F73928F90
:100B800090E008958FEF9FEF089585E397E0892B1C
:100B900049F080E090E0892B29F00E94350781110F
:100BA0000C9400000895FC01848DDF01A80FB11D95
:100BB000A35ABF4F2C91848D90E001968F73992793
:100BC000848FA689B7892C93A089B1898C91806480
:100BD0008C93938D848D981306C00288F389E02D41
:100BE00080818F7D80830895CF93DF93EC01888D82
:100BF0008823C9F0EA89FB89808185FD05C0A88921
:100C0000B9898C9186FD0FC00FB607FCF5CF8081A6
:100C100085FFF2CFA889B9898C9185FFEDCFCE01F0
:100C20000E94D305E7CFDF91CF910895CF92DF9255
:100C3000FF920F931F93CF93DF931F92CDB7DEB731
:100C40006C0181E0D60158968C9358975B969C91E5
:100C50005B975C968C915C97981307C05096ED91CA
:100C6000FC915197808185FD2EC0F601038D10E027
:100C70000F5F1F4F0F731127F02EF601848DF812AE
:100C800011C00FB607FCF9CFD6015096ED91FC913B
:100C90005197808185FFF1CFC60169830E94D305FA
:100CA0006981EBCF838DE80FF11DE35AFF4F60831D
:100CB000D6015B960C935B975296ED91FC915397FE
:100CC000808180620CC0D6015696ED91FC915797B9
:100CD00060835096ED91FC91519780818064808370
:100CE00081E090E00F90DF91CF911F910F91FF90E5
:100CF000DF90CF900895BF92CF92DF92EF92FF9254
:100D0000CF93DF93EC016A017B01B22EE889F98968
:100D100082E08083411581EE580761057105A1F0DD
:100D200060E079E08DE390E0A70196010E946E0AF1
:100D30002150310941095109569547953795279515
:100D4000211580E1380798F0E889F989108260E878
:100D500074E88EE190E0A70196010E946E0A21508E
:100D60003109410951095695479537952795EC85E5
:100D7000FD853083EE85FF852083188EEC89FD8903
:100D8000B082EA89FB89808180618083EA89FB895E
:100D9000808188608083EA89FB8980818068808384
:100DA000EA89FB8980818F7D8083DF91CF91FF90DD
:100DB000EF90DF90CF90BF9008951F920F920FB6E3
:100DC0000F9211242F938F939F93EF93FF93E091B2
:100DD0008E01F0918F018081E0919401F091950155
:100DE00082FD12C09081809197018F5F8F73209157
:100DF0009801821751F0E0919701F0E0E258FE4F20
:100E0000958F8093970101C08081FF91EF919F9111
:100E10008F912F910F900FBE0F901F9018951F92DA
:100E20000F920FB60F9211242F933F934F935F931E
:100E30006F937F938F939F93AF93BF93EF93FF93A2
:100E40008EE791E00E94D305FF91EF91BF91AF91A2
:100E50009F918F917F916F915F914F913F912F91D2
:100E60000F900FBE0F901F9018958EE791E00E9493
:100E7000980521E0892B09F420E0822F0895109233
:100E800081011092800188EE93E0A0E0B0E08093B1
:100E9000820190938301A0938401B093850186E041
:100EA00091E090937F0180937E0185EC90E0909398
:100EB0008B0180938A0184EC90E090938D01809364
:100EC0008C0180EC90E090938F0180938E0181ECF7
:100ED00090E0909391018093900182EC90E0909348
:100EE00093018093920186EC90E09093950180931A
:100EF000940110929701109298011092990110920A
:100F00009A010895CF92DF92EF92FF920F931F9371
:100F1000CF93DF937C016A01EB0100E010E00C1538
:100F20001D0571F06991D701ED91FC910190F0815F
:100F3000E02DC7010995892B19F00F5F1F4FEFCFE7
:100F4000C801DF91CF911F910F91FF90EF90DF903B
:100F5000CF9008953F924F925F926F927F928F92BF
:100F60009F92AF92BF92CF92DF92EF92FF920F9338
:100F70001F93CF93DF9300D000D0CDB7DEB78B01A6
:100F800029013A0190910101981721F09F3F09F042
:100F9000DAC104C0E0EEF0E0349081C0809301013A
:100FA000E0EEF0E0E491EF3F09F4CDC1E13031F142
:100FB000E23009F44BC0E11171C014BC15BC94B50A
:100FC000926094BD95B5916095BD282F30E0F901F0
:100FD000E255FF4FE491F0E0EE0FFF1FE453FF4FA7
:100FE0004591549150932B0240932A02F901E65601
:100FF000FF4F249120932902312C53C0109280007E
:10100000109281009091810098609093810090915E
:101010008100916090938100282F30E0F901E25522
:10102000FF4FE491F0E0EE0FFF1FE453FF4F4591B7
:1010300054915093240240932302F901E656FF4F46
:10104000249120932202332433942BC01092B000B9
:101050001092B1009091B00092609093B000909186
:10106000B10091609093B100282F30E0F901E25572
:10107000FF4FE491F0E0EE0FFF1FE453FF4F459167
:10108000549150931D0240931C02F901E656FF4F04
:10109000249120931B0252E0352E03C03E2E37FCD4
:1010A00052C161E00E9400054801A12CB12C832DA2
:1010B0008D7F09F0C7C060E072E18AE790E0A5018A
:1010C00094010E94900A29833A834B835C836901CF
:1010D0007A0181E0C81AD108E108F1089FEFC9162A
:1010E000D104E104F10409F008F49AC060E472E468
:1010F0008FE090E0A50194010E94900A69017A01B5
:10110000E1E0CE1AD108E108F108F2E03F1219C07F
:101110008FEFC816D104E104F10409F008F48AC085
:1011200060E970ED83E090E0A50194010E94900ACF
:1011300069017A0191E0C91AD108E108F10883E058
:1011400001C082E0EFEFCE16D104E104F10409F012
:1011500008F467C068E478EE81E090E0A5019401AE
:101160000E94900A69017A01F1E0CF1AD108E108E2
:10117000F1083320E1F082E038121BC09FEFC9165E
:10118000D104E104F10409F008F4DBC064E274EF77
:1011900080E090E0A50194010E94900A69017A0123
:1011A000E1E0CE1AD108E108F10885E003C083E050
:1011B00001C084E0FFEFCF16D104E104F10489F10E
:1011C00080F162E17AE780E090E0A50194010E945D
:1011D000900A69017A0181E0C81AD108E108F10892
:1011E000311002C084E001C086E09FEFC916D1042F
:1011F000E104F104B1F0A8F0C980DA80EB80FC8052
:101200009AE0F594E794D794C7949A95D1F7E1E0E2
:10121000CE1AD108E108F108332031F087E00BC085
:1012200081E0332011F007C085E095B5987F982BB9
:1012300095BD38C082E09091B100987F982B909333
:10124000B10030C060E072E18AE790E0A50194014E
:101250000E94900A69017A01F1E0CF1AD108E108F1
:10126000F108C114D10481E0E806F10488F068E4D3
:1012700078EE81E090E0A50194010E94900A690156
:101280007A0191E0C91AD108E108F10893E001C0A0
:1012900091E0E1E03E1206C080918100887F892BB9
:1012A00080938100411451046104710471F0D801EC
:1012B000AA0FBB1FA30192010E94B50A28EE33E0DA
:1012C00040E050E00E946E0A03C02FEF3FEFA901FB
:1012D000F1E03F16A1F082E0381619F1311033C069
:1012E000C7BC20932C0230932D0240932E025093C2
:1012F0002F0280916E00826080936E0024C0D09295
:101300008900C092880020932502309326024093E2
:1013100027025093280280916F00826080936F00B3
:1013200012C0C092B30020931E0230931F0240935C
:10133000200250932102809170008260809370009F
:1013400002C084E078CF0F900F900F900F90DF9144
:10135000CF911F910F91FF90EF90DF90CF90BF90B2
:10136000AF909F908F907F906F905F904F903F9045
:101370000895813039F018F0823051F008951092BC
:101380006E00089580916F008D7F80936F000895A7
:10139000809170008D7F8093700081E08093B00019
:1013A0008091B100887F84608093B1001092B30077
:1013B0000895CF93C82F809101018C1307C0E0EEF0
:1013C000F0E084919FEF9093010101C08FEF0E94A4
:1013D000B90960E08C2FCF910C9439051F920F92C0
:1013E0000FB60F9211242F933F934F935F936F93F8
:1013F0007F938F939F93AF93BF93EF93FF938091CE
:101400001E0290911F02A0912002B0912102892B0F
:101410008A2B8B2B51F190911B02E0911C02F091D1
:101420001D0280818927808380911E0290911F0276
:10143000A0912002B0912102181619061A061B0667
:10144000C4F480911E0290911F02A0912002B091DD
:1014500021020197A109B10980931E0290931F02F6
:10146000A0932002B093210204C0809101010E9448
:10147000D909FF91EF91BF91AF919F918F917F918A
:101480006F915F914F913F912F910F900FBE0F90F1
:101490001F90189508950E9420040E944A0A0E94F5
:1014A000AA00C5ECD5E00E9437012097E1F30E9425
:1014B000C505F9CFAA1BBB1B51E107C0AA1FBB1F63
:1014C000A617B70710F0A61BB70B881F991F5A95D0
:1014D000A9F780959095BC01CD010895A1E21A2E3F
:1014E000AA1BBB1BFD010DC0AA1FBB1FEE1FFF1FC8
:1014F000A217B307E407F50720F0A21BB30BE40B18
:10150000F50B661F771F881F991F1A9469F760955E
:101510007095809590959B01AC01BD01CF01089518
:10152000052E97FB1EF400940E94A70A57FD07D0D2
:101530000E946E0A07FC03D04EF40C94A70A509543
:101540004095309521953F4F4F4F5F4F08959095AF
:101550008095709561957F4F8F4F9F4F0895EE0F47
:10156000FF1F0590F491E02D09940E94C00AA59FE9
:10157000900DB49F900DA49F800D911D112408958E
:10158000A29FB001B39FC001A39F700D811D1124C4
:10159000911DB29F700D811D1124911D0895F89425
:0215A000FFCF7B
:1015A20001FF00000000160682079805B105A30599
:0215B200F4053E
:00000001FF
