:100000000C9416010C943E010C943E010C943E019C
:100010000C943E010C943E010C943E010C943E0164
:100020000C943E010C943E010C94D5020C945503A3
:100030000C943E010C943E010C943E010C943E0144
:100040000C943E010C943E010C943E010C943E0134
:100050000C943E010C943E010C943E010C94BD06A0
:100060000C943E010C943E010C943E010C943E0114
:100070000C943E010C943E010C943E010C943E0104
:100080000C9492050C943E010C943E010C943E019C
:100090000C943E010C943E010C943E010C943E01E4
:1000A0000C943E010C943E010C943E0168076B07D2
:1000B0005A075E0764078C078C078C076F07730766
:1000C00077077D0781078C0787074F0D9310650D14
:1000D0009310850D9310BD0D9310E80D9310430EF2
:1000E0009310FA0E93103A0F9310750F9310A50FFB
:1000F00093102010700E750E7A0E840E8E0ED80E90
:10010000D80ED80E980EA20EAC0EB60EC30ED80E98
:10011000CB0E00000000240027002A002D00300034
:10012000000000002300260029002C002F000408F6
:1001300002011040804010204080408008020401ED
:10014000804020100201108010204040200000005C
:1001500000250028002B002E0031000404040404B4
:10016000030405020202020403020202020606065A
:1001700006060604040202020404080B000202023E
:100180000100090400000102020000052400100122
:1001900005240101010424020605240600010705C7
:1001A000810310004009040100020A000000070555
:1001B0000202400000070583024000000403090416
:1001C00041726475696E6F204C4C430041726475D6
:1001D000696E6F204D6963726F00120100020000AA
:1001E0000040412337800001010203011201000297
:1001F000EF020140412337800001010203010300A7
:1002000000000200090F0000030401000C000000C0
:1002100000000000000000000000000000000706D1
:1002200005040100080A0B0C0D094C0B11241FBE1C
:10023000CFEFDAE0DEBFCDBF11E0A0E0B1E0E6E253
:10024000F2E202C005900D92A632B107D9F722E082
:10025000A6E2B1E001C01D92A132B207E1F711E0C0
:10026000C6E1D1E004C02197FE010E94F110C53122
:10027000D107C9F70E94610B0C9411110C94000076
:1002800040915301509154012091510130915201FC
:1002900042175307B4F49091E8009570E1F3909100
:1002A000E80092FD19C08093F10080915301909174
:1002B000540101968F739927892B19F48EEF80933F
:1002C000E80080915301909154010196909354015C
:1002D0008093530181E0089580E00895CF92DF92EA
:1002E000EF92FF920F931F93CF93DF931F92CDB79F
:1002F000DEB7182F062FE42E862F880F8E5F998386
:100300000E94400183E00E944001F12EC12E99819C
:10031000D92E8C2D8F19801798F4F601E7FE02C0B4
:10032000849101C080810E944001182F80E00E94CA
:1003300040018123FFEFCF1ADF0A8111EACF01C00C
:1003400081E00F90DF91CF911F910F91FF90EF907F
:10035000DF90CF900895DF92EF92FF920F931F935B
:10036000CF93DF93D82E8A017B01E40EF51EEB01BB
:10037000CE15DF0571F0D7FE03C0FE01849101C0E8
:1003800088810E94400121968111F2CF8FEF9FEF6B
:1003900001C0C801DF91CF911F910F91FF90EF90A5
:1003A000DF900895615030F02091F100FC0120832E
:1003B0000196F8CF289A84E6809313020895CF928D
:1003C000DF92EF92FF920F931F93CF93DF936C0115
:1003D0007A018B01C0E0D0E0CE15DF0589F0D801AD
:1003E0006D918D01D601ED91FC910190F081E02D90
:1003F000C6010995892B11F47E0102C02196ECCF2C
:10040000C701DF91CF911F910F91FF90EF90DF9087
:10041000CF900895CF93DF931F92CDB7DEB7698356
:10042000DC01ED91FC910280F381E02D41E050E090
:10043000BE016F5F7F4F09950F90DF91CF910895B7
:10044000FC018485958597FD0BC09FB7F89482E0E9
:100450008093E9008091F2009FBF90E0019608959B
:100460009FB7F89482E08093E9008091F2009FBFEB
:1004700090E008953FB7F894809130019091310158
:10048000A0913201B091330126B5A89B05C02F3F42
:1004900019F00196A11DB11D3FBFBA2FA92F982FAA
:1004A0008827820F911DA11DB11DBC01CD0142E025
:1004B000660F771F881F991F4A95D1F708950C94EE
:1004C00007070F931F93CF93DF931F92CDB7DEB72C
:1004D00082E0898342E450E06AE771E080E80E94AC
:1004E000AB010E943C07DC0112960D911C91139701
:1004F0000115110569F0D801ED91FC910280F3819D
:10050000E02DBE016F5F7F4FC801099597FF07C0BF
:1005100089810F90DF91CF911F910F910895F8017C
:1005200000851185E5CFCF93DF931F92CDB7DEB75E
:10053000FC018485958597FD05C02FEF3FEF35873A
:1005400024870BC0CE0101960E941207019719F46F
:10055000898190E002C08FEF9FEF0F90DF91CF91E4
:1005600008950F931F93CF93DF931F92CDB7DEB7FC
:100570008C01FC018485958597FF0EC0CE01019604
:100580000E941207019719F4298130E002C02FEF71
:100590003FEFF80135872487F801848595850F9012
:1005A000DF91CF911F910F9108951F920F920FB677
:1005B0000F9211242F933F934F935F936F937F93E9
:1005C0008F939F93AF93BF93CF93EF93FF93C0917C
:1005D000E1008091E100837F8093E100C3FF0FC0C1
:1005E0001092E90081E08093EB001092EC0082E32E
:1005F0008093ED001092140288E08093F000C2FF17
:1006000018C00E94070780915501882339F0809116
:100610005501815080935501882389F180911302FF
:10062000882339F08091130281508093130288232C
:1006300041F1C4FF10C08091E2008E7E8160809302
:10064000E2008091E1008F7E8093E100809157016C
:100650008E7E806111C0C0FF16C08091E2008E7E48
:1006600080618093E2008091E1008E7E8093E100C2
:10067000809157018E7E81608093570104C05D9800
:10068000CDCF2898D6CFFF91EF91CF91BF91AF9169
:100690009F918F917F916F915F914F913F912F919A
:1006A0000F900FBE0F901F9018951F920F920FB6CC
:1006B0000F921124CF92DF92EF92FF920F931F932C
:1006C0002F933F934F935F936F937F938F939F935A
:1006D000AF93BF93EF93FF93CF93DF93CDB7DEB785
:1006E0006C97DEBFCDBF1092E9008091E80083FFD8
:1006F000FAC168E0CE0145960E94D20182EF809354
:10070000E8008D8987FF05C09091E80090FFFCCF3D
:1007100003C09EEF9093E800982F907609F0C6C032
:100720009E892F89188D91110CC0803829F48091F1
:1007300058018093F10002C01092F1001092F10074
:1007400047C1422F50E0512B913051F4811140C1EB
:100750004130510509F03CC1809158018D7F0BC09B
:10076000933061F4811134C14130510509F030C139
:10077000809158018260809358012AC1953041F4DC
:100780008091E80080FFFCCF20682093E30020C127
:10079000963009F05FC0EB8CFC8C1092E90010924F
:1007A000540110925301123091F51092520110929F
:1007B00051010E94610299E0BE016F5F7F4FDB0132
:1007C000E92F1D92EA95E9F799831A8391E09E83B8
:1007D00090EA98879AEF99872091530130915401BC
:1007E000275F3F4F3C832B838D831092E90010924B
:1007F000540110925301F0925201E092510149E0EC
:1008000050E080E00E94AB010E946102E1C0F092E2
:100810005201E09251010E943C07DC011296ED90DA
:10082000FC901397E114F10409F4C0C0D701ED91D5
:10083000FC910480F581E02DBE016B5E7F4FC70106
:100840000995009719F00CF0C3C0C6C0F701E08409
:10085000F184E8CF973009F4BFC0983021F481E0EB
:100860008093F100B5C0993009F0B2C0837009F0EF
:10087000B3C0EFE1F1E081E021E036E3908199231C
:1008800061F08093E9002093EB0091919093EC004C
:100890003093ED008F5F873089F78EE78093EA0011
:1008A0001092EA008F898093140292C08B8D9C8DE8
:1008B0001092E9001092540110925301909352014A
:1008C00080935101898D811156C08E899D89913AFD
:1008D00059F4813209F080C047E050E064E071E0F3
:1008E00080E00E94AB0174C0913209F075C0833280
:1008F00089F4888D90E0982F88272F89822BA0E09B
:10090000B0E08093000190930101A0930201B093A5
:1009100003015EC0803269F48091E80082FFFCCF61
:1009200067E084E091E00E94D2018BEF8093E800C1
:1009300006C0823209F04CC08F8980930B018091F0
:100940005601882319F0EEEFFAE002C0E0E0F8E08B
:100950008091040190910501A0910601B0910701D9
:10096000803B9440A105B10509F088C080910B013E
:1009700080FFA0C083C00E943C07DC0112960D914D
:100980001C9113970115110539F1D801ED91FC91D6
:100990000190F081E02DBE016B5E7F4FC80109958B
:1009A000811116C0F80100851185ECCF1130C1F01E
:1009B000133091F48F89882309F455C08230E9F40B
:1009C00040E86DE08CEC91E00E946E01882321F0FC
:1009D0008EEF8093E80087C081E28093EB0083C0B4
:1009E0008B8D9C8D089711F41093500180915001CC
:1009F000811136C06AED71E038C0813029F440E8D9
:100A00006BE080EC91E0E0CF833031F70E943C074F
:100A1000DC011296ED90FC9013978E010F5F1F4F33
:100A20006801E114F10479F0D701ED91FC910680A1
:100A3000F781E02DB801C7010995080F111DF701D5
:100A4000E084F184EECFD8011C92F60101900020E1
:100A5000E9F73197BF016C197D0940E0C601B4CFB9
:100A60006CEE71E002C06CEB71E06115710509F488
:100A7000B3CFFB01449150E080E833CF0FB6F89438
:100A8000A89580916000886180936000109260005A
:100A90000FBEA895EE3F2AE0F20739F08091FE0ADA
:100AA0009091FF0A9183808393CF1092FF0A109256
:100AB000FE0A8ECFEE3F8AE0F80731F08081918107
:100AC0009093FF0A8093FE0A87E797E791838083DC
:100AD0009BE088E10FB6F894A895809360000FBE64
:100AE0009093600075CF6C960FB6F894DEBF0FBE82
:100AF000CDBFDF91CF91FF91EF91BF91AF919F91CA
:100B00008F917F916F915F914F913F912F911F91A5
:100B10000F91FF90EF90DF90CF900F900FBE0F904E
:100B20001F9018951F920F920FB60F9211242F93BA
:100B30003F938F939F93AF93BF93EF93FF938091D6
:100B40004C0190914D01A0914E01B0914F01892B24
:100B50008A2B8B2B51F180914B01E0914901F0914F
:100B60004A0190818927808380914C0190914D01A9
:100B7000A0914E01B0914F01181619061A061B06D6
:100B80004CF580914C0190914D01A0914E01B09196
:100B90004F010197A109B10980934C0190934D0138
:100BA000A0934E01B0934F0115C0809171008D7FCD
:100BB0008093710090914B01E0914901F0914A01BD
:100BC0008081282F30E0892F90E0809590958223B6
:100BD00093238083FF91EF91BF91AF919F918F916C
:100BE0003F912F910F900FBE0F901F9018958F92ED
:100BF0009F92AF92BF92CF92DF92EF92FF926B01E2
:100C00007C010E943A024B015C01C114D104E10451
:100C1000F104F1F00E943A02DC01CB018819990934
:100C2000AA09BB09883E9340A105B10570F321E0F4
:100C3000C21AD108E108F10888EE880E83E0981EF8
:100C4000A11CB11CC114D104E104F10419F7DDCFDA
:100C5000FF90EF90DF90CF90BF90AF909F908F90DC
:100C600008958F929F92AF92BF92CF92DF92EF92B0
:100C7000FF920F931F93CF93DF935C016B018A0167
:100C800080910B01882309F45EC0809114028823AF
:100C900009F459C08091570180FF05C08091E000A0
:100CA00082608093E000E8018AEFF82E93E0E92E5D
:100CB0002FE3822E3AE3932E209709F43DC08FB79D
:100CC000F894E092E9009091E80095FF06C09091B9
:100CD000F200282D291B922F01C090E08FBF9111A7
:100CE0000AC0FA94FF2079F161E070E080E090E0C2
:100CF0000E94F705E1CF292F30E0C217D3070CF48B
:100D00009C2F8FB7F894E092E9002091E80025FF2E
:100D100011C0292F30E0C21BD30BF601915020F0F7
:100D200041914093F100FACFC20ED31E9091E8009A
:100D300095FF13C08FBFC0CF5D9A84E680935501A5
:100D40001016110644F081E090E0F5019383828350
:100D500080E090E005C0C80103C09092E800EACFAF
:100D6000DF91CF911F910F91FF90EF90DF90CF9087
:100D7000BF90AF909F908F9008951F920F920FB6E3
:100D80000F9211242F933F938F939F93AF93BF9311
:100D900080912C0190912D01A0912E01B0912F01F5
:100DA00030912B0123E0230F2D3720F40196A11D54
:100DB000B11D05C026E8230F0296A11DB11D209389
:100DC0002B0180932C0190932D01A0932E01B093C1
:100DD0002F018091300190913101A0913201B091A9
:100DE00033010196A11DB11D809330019093310113
:100DF000A0933201B0933301BF91AF919F918F9136
:100E00003F912F910F900FBE0F901F90189583E088
:100E10008093E9008091F200882319F08AE380939F
:100E2000E8000895FC0180911402811103C08FEF46
:100E30009FEF08959FB7F89482E08093E900209196
:100E4000F20030E01216130614F421E030E0211510
:100E5000310559F0289A84E6809313028091F100BD
:100E600080838091F200882319F09FBFC901089503
:100E70008BE68093E800F9CF8091190281110DC0B3
:100E800082E08093150284E080931602109218028B
:100E90001092170281E08093190285E192E0089593
:100EA00090E0FC013197EF30F105B0F5EA5AFF4FC1
:100EB0000C94F110809180008F7703C080918000A6
:100EC0008F7D80938000089580918000877FF9CF87
:100ED00084B58F7702C084B58F7D84BD08958091DD
:100EE00090008F7707C0809190008F7D03C0809124
:100EF0009000877F8093900008958091C0008F7745
:100F000003C08091C0008F7D8093C00008958091C0
:100F1000C200877F8093C2000895CF93DF93282F6C
:100F200030E0F901E150FE4F8491F901E25DFE4F9E
:100F3000D491F901E55AFE4FC491CC2391F081116F
:100F40000E945007EC2FF0E0EE0FFF1FE05EFE4F17
:100F5000A591B491EC91ED2381E090E021F480E043
:100F600002C080E090E0DF91CF9108951F93CF936E
:100F7000DF93282F30E0F901E150FE4F8491F90111
:100F8000E25DFE4FD491F901E55AFE4FC491CC23A6
:100F9000C9F0162F81110E945007EC2FF0E0EE0FE0
:100FA000FF1FE35BFE4FA591B4918FB7F894111129
:100FB00005C09C91ED2FE095E92302C0EC91ED2B4B
:100FC000EC938FBFDF91CF911F910895CF93DF9363
:100FD00090E0FC01E25DFE4F2491FC01E55AFE4FDA
:100FE0008491882361F190E0880F991FFC01EE5EE7
:100FF000FE4FC591D491FC01E35BFE4FA591B491E6
:10100000611109C09FB7F894888120958223888355
:10101000EC912E230BC0623061F49FB7F8943881B5
:10102000822F809583238883EC912E2B2C939FBF56
:1010300006C08FB7F894E8812E2B28838FBFDF91ED
:10104000CF9108953F924F925F926F927F928F92CD
:101050009F92AF92BF92CF92DF92EF92FF920F9347
:101060001F93CF93DF9300D000D0CDB7DEB7290117
:101070003A0190910C01981721F09F3F09F090C21E
:1010800004C0EEEFF1E03490AEC080930C01EEEFBF
:10109000F1E0E491EF3F09F483C2E13009F452C07A
:1010A0001CF5E1119FC014BC15BC94B5926094BDB1
:1010B00095B5916095BD282F30E0F901E55AFE4FB6
:1010C000E491F0E0EE0FFF1FE35BFE4F459154917A
:1010D00050933C0140933B01F901E25DFE4FE491E6
:1010E000E0933A01312C81C0E33009F453C0E4307D
:1010F00009F078C01092C0001092C1009091C10018
:1011000098609093C1009091C10091609093C1004C
:10111000482F50E0FA01E55AFE4FE491F0E0EE0F5F
:10112000FF1FE35BFE4F25913491309336012093EE
:101130003501FA01E25DFE4FE491E0933401B4E041
:101140003B2E53C01092800010928100909181003C
:1011500098609093810090918100916090938100BC
:10116000282F30E0F901E55AFE4FE491F0E0EE0F50
:10117000FF1FE35BFE4F459154915093390140931B
:101180003801F901E25DFE4FE491E0933701332429
:1011900033942BC010929000109291009091910086
:1011A000986090939100909191009160909391003C
:1011B000282F30E0F901E55AFE4FE491F0E0EE0F00
:1011C000FF1FE35BFE4F4591549150934A014093BA
:1011D0004901F901E25DFE4FE491E0934B0103E028
:1011E000302E03C03E2E37FCDBC18B0161E00E9434
:1011F000E6074801A12CB12C832D8D7F09F0CCC0CE
:1012000060E072E18AE790E0A50194010E94D210AB
:1012100029833A834B835C8369017A0121E0C21AF6
:10122000D108E108F1088FEFC816D104E104F104F8
:1012300009F008F44BC060E472E48FE090E0A5018F
:1012400094010E94D21069017A0191E0C91AD10873
:10125000E108F108E2E03E121FC0FFEFCF16D10413
:10126000E104F10409F008F4F4C060E970ED83E0F2
:1012700090E0A50194010E94D21069017A0181E0F9
:10128000C81AD108E108F1089FEFC916D104E1049A
:10129000F10409F010F5DDC0EFEFCE16D104E10442
:1012A000F104B1F0A8F068E478EE81E090E0A501E7
:1012B00094010E94D21069017A01F1E0CF1AD1089D
:1012C000E108F108332009F437C12CC181E001C0E5
:1012D00082E0332009F45BC0BCC068E478EE81E0B2
:1012E00090E0A50194010E94D21069017A01F1E019
:1012F000CF1AD108E108F1082FEFC216D104E1049A
:10130000F10409F008F4A5C064E274EF80E090E015
:10131000A50194010E94D21069017A0181E0C81AE6
:10132000D108E108F1089FEFC916D104E104F104E6
:1013300009F008F48EC062E17AE780E090E0A50150
:1013400094010E94D21069017A0181E0C81AD10883
:10135000E108F1089FEFC916D104E104F10409F096
:1013600008F4DEC089819A81AB81BC814AE0B595E1
:10137000A795979587954A95D1F76C017D01E1E096
:10138000CE1AD108E108F108311063C085E095B5A7
:10139000987F892B85BD5DC060E072E18AE790E0AF
:1013A000A50194010E94D21069017A01F1E0CF1ADF
:1013B000D108E108F108C114D10421E0E206F104EA
:1013C00088F068E478EE81E090E0A50194010E9445
:1013D000D21069017A0181E0C81AD108E108F10848
:1013E00083E001C081E091E039120FC0909181004B
:1013F000987F892B8093810041145104610471040A
:1014000069F52FEF3FEFA90157C0E3E03E120FC08F
:1014100090919100987F892B809391004114510401
:1014200061047104D9F42FEF3FEFA90157C0F4E034
:101430003F120FC09091C100987F892B8093C1000B
:10144000411451046104710449F42FEF3FEFA901E5
:1014500057C0411451046104710471F0D801AA0FFE
:10146000BB1FA30192010E94F71028EE33E040E079
:1014700050E00E94B01003C02FEF3FEFA90181E0C0
:101480003816D1F083158CF031108AC0C7BC209378
:1014900045013093460140934701509348018091A4
:1014A0006E00826080936E007BC093E03916B1F0CD
:1014B000E4E03E1629F174C0D0928900C092880001
:1014C00020934101309342014093430150934401E2
:1014D00080916F00826080936F0062C0D09299000B
:1014E000C092980020934C0130934D0140934E01DF
:1014F00050934F018091710082608093710050C0C1
:10150000C092CF0020933D0130933E0140933F01B4
:10151000509340018091720080648093720040C0BB
:1015200086E0D7CEEFEFCE16D104E104F10411F03E
:1015300008F001CF84E0CDCE8FEFC816D104E104CE
:10154000F104C9F0C0F062E17AE780E090E0A50123
:1015500094010E94D21069017A01F1E0CF1AD108FA
:10156000E108F1082FEFC216D104E104F10409F0FB
:1015700020F484E00CCF83E00ACF89819A81AB818B
:10158000BC812AE0B595A795979587952A95D1F7BF
:101590006C017D01E1E0CE1AD108E108F108F6CE38
:1015A0000F900F900F900F90DF91CF911F910F919F
:1015B000FF90EF90DF90CF90BF90AF909F908F9073
:1015C0007F906F905F904F903F9008956FEE89E508
:1015D00091E00E940A026FEE89E591E00E940A0202
:1015E0006FEE89E591E00E940A020C940707CF9202
:1015F000DF92EF92FF920F931F93CF93DF9300D070
:1016000000D0CDB7DEB79FB7F894C0902C01D09032
:101610002D01E0902E01F0902F019FBF082F10E0C8
:1016200089E591E049835A836B837C830E94200281
:1016300049815A816B817C8180179107A4F42FB76F
:10164000F89480912C0190912D01A0912E01B091E0
:101650002F012FBF8C199D09AE09BF09841795076B
:10166000A607B707E8F289E591E00E9420028017FB
:10167000910724F40E94E60A80E001C081E00F9007
:101680000F900F900F90DF91CF911F910F91FF90CE
:10169000EF90DF90CF900895E9E5F1E01382128298
:1016A00088EE93E0A0E0B0E084839583A683B783BF
:1016B00082E191E0918380838FEF9FEF958784870C
:1016C0000895789484B5826084BD84B5816084BDBA
:1016D00085B5826085BD85B5816085BD80916E00D0
:1016E000816080936E001092810080918100826001
:1016F000809381008091810081608093810080913E
:10170000800081608093800080919100826080934E
:101710009100809191008160809391008091900070
:101720008160809390008091C10084608093C100AB
:101730008091C10082608093C1008091C10081606E
:101740008093C1008091C30081608093C300809129
:10175000C00082608093C0008091C200816080934D
:10176000C20080917A00846080937A0080917A0030
:10177000826080937A0080917A00816080937A0001
:1017800080917A00806880937A00109214021092FF
:101790005801109257018091D70081608093D70043
:1017A00080EA8093D80089B5806189BD89B582605F
:1017B00089BD09B400FEFDCF61E070E080E090E0FB
:1017C0000E94F7058091D8008F7C80618093D800BB
:1017D0008091E000807F8093E0008091E1008E7E28
:1017E0008093E1008DE08093E200559A209A5D9805
:1017F0002898EEEFFFE7859194918B3F9C4D19F46B
:1018000081E0809356018FEF9FEF90936601809364
:101810006501C0910B016AE070E080E090E00E94F9
:10182000F705CC23B1F3CFEFD0E0AEEFEA2EA1E085
:10183000FA2EB0E0CB2EB0E0DB2EE3EDF1E011921A
:1018400062E0E331F607D9F789E591E00E942002D2
:101850000497D0F389E591E00E9493028093D2012E
:101860008F3F09F062C489E591E00E949302809362
:10187000D2018E3F09F059C489E591E00E9493029C
:101880008093D2018D3F09F050C489E591E00E9418
:1018900093028093D2018C3F09F047C46CEF89E535
:1018A00091E00E940A026DEF89E591E00E940A0230
:1018B0006EEF89E591E00E940A026FEF89E591E001
:1018C0000E940A020E9407074AEF50E060E070E0C1
:1018D00083E00E94F70A882309F427C489E591E090
:1018E0000E9493028B3F910509F01FC489E591E0A6
:1018F0000E9493028093D10189E591E00E949302B6
:101900008093D001682F89E591E00E940A026091DE
:10191000D10189E591E00E940A026BEF89E591E02F
:101920000E940A020E9407078091D00148EE53E00E
:1019300060E070E08C5F0E94F70A882309F4F5C329
:10194000F3EDAF2EF1E0BF2E8091D00190E09C012D
:101950002D5F3F4FA501435D51402417350744F0EB
:1019600089E591E00E949302D5018D935D01ECCF52
:10197000FC01ED52FE4F82818093CF01F901ED52BF
:10198000FE4F80818093CE0148EE53E060E070E02E
:1019900081E00E94F70A882309F4C7C389E591E032
:1019A0000E9493028A3F910509F0BFC34091D00184
:1019B000A42EB12CB2E0AB0EB11CE3ED8E2EE1E013
:1019C0009E2EE0E0F0E020E030E0C401835D914035
:1019D0008A159B0590F4D4018D914D01B901680FD2
:1019E000711DCB01BE010E949C109C018E0F9F1F98
:1019F000BE010E949C10FC01E8CFFE2FEE272E2B8B
:101A00003F2B3093CD012093CC01F901FF27F093B8
:101A1000CB01E093CA01232F33273093C9012093D0
:101A2000C801C9018E0F9F1FBE010E949C109E011C
:101A3000281B390B3093C7012093C601C9018E0FB3
:101A40009F1FBE010E949C10BE01681B790B709302
:101A5000C5016093C4018091CF0190E02817390738
:101A600009F061C38091CE0190E06817790709F011
:101A70005AC3E091D1018091D301E81354C38091FE
:101A8000D401481350C38E2F90E0FC013197E5310B
:101A9000F10508F048C3EB59FF4F0C94F11069EFC2
:101AA00089E591E00E940A0263E089E591E00E94E5
:101AB0000A0262E089E591E00E940A0261E089E59C
:101AC00091E00E940A0262E051C08091D501282F66
:101AD00030E03093C3012093C2010E948D079093A0
:101AE000C1018093C00169EF89E591E00E940A027B
:101AF00063E089E591E00E940A0264E089E591E0F3
:101B00000E940A026091C2012BC08091D501282F4A
:101B100030E03093BF012093BE012091D60130E028
:101B20003093C1012093C0012115310511F460E00B
:101B300004C02130310519F461E00E94B60769EF55
:101B400089E591E00E940A0263E089E591E00E9444
:101B50000A0266E089E591E00E940A026091BE01F6
:101B600089E591E00E940A026091C00189E591E057
:101B70000E940A020E940707D8C28091D501282F2F
:101B800030E03093BF012093BE012091D60130E0B8
:101B90003093C1012093C0012115310511F460E09B
:101BA00009C02130310511F462E004C02230310552
:101BB00019F461E00E94E60769EF89E591E00E946F
:101BC0000A0263E089E591E00E940A0268E0C2CF60
:101BD000E091D5018E2F90E09093BD018093BC01E0
:101BE000E23108F0E251F0E0E25EFD4FE491209135
:101BF0007B00E3FB002700F910E0C80155E0880FE7
:101C0000991F5A95E1F7922F9F7D892B80937B0036
:101C1000E77080910D0170E4879FC0011124E82BCB
:101C2000E0937C0080917A00806480937A008091B8
:101C30007A0086FDFCCF809178002091790090E0B9
:101C4000922B9093BB018093BA0169EF89E591E0F3
:101C50000E940A0264E089E591E00E940A026AE0BB
:101C600089E591E00E940A026091BC0189E591E05A
:101C70000E940A026091BB0189E591E00E940A027C
:101C80006091BA0173CF7090D501872C912C9092FE
:101C9000B9018092B8016090D601A62CB12CB09207
:101CA000B701A092B60161E0872D0E94E607A1145A
:101CB000B10409F481C08FEFA816B10409F47EC005
:101CC000F401E150FE4FE4914E2F50E0FA013197BC
:101CD000EF30F10508F06CC0E658FF4F0C94F1109E
:101CE00084B5806884BD67BC6DC084B5806284BDE6
:101CF00068BC68C080918000806880938000B0924A
:101D00008900A09288005EC08091800080628093EC
:101D10008000B0928B00A0928A0054C08091800015
:101D2000886080938000B0928D00A0928C004AC0A1
:101D300080919000806880939000B0929900A0926A
:101D4000980040C080919000806280939000B09293
:101D50009B00A0929A0036C080919000886080938A
:101D60009000B0929D00A0929C002CC08091C00079
:101D700080688093C0008091C0008F7B8093C000FA
:101D80006092CF001FC08091C00080628093C0002D
:101D90006092D00017C08091C20088608093C2001A
:101DA0008091C2008B7F8093C2006092D2000AC0F3
:101DB000A0E8AA16B10414F460E001C061E0872D28
:101DC0000E94B60769EF89E591E00E940A0263E08C
:101DD00089E591E00E940A026CE089E591E00E94A9
:101DE0000A026091B80189E591E00E940A026091BF
:101DF000B601BCCE8091D501282F30E03093BF01D1
:101E00002093BE016091D60170E0762F66279091F5
:101E1000D701690F711D7093B5016093B4012091D2
:101E2000DA0130E0322F22279091DB01290F311D9A
:101E3000032E000C440B550B2093B0013093B101DD
:101E40004093B2015093B30121153105410551056D
:101E500019F420E030E0A9010E94220869EF89E529
:101E600091E00E940A0261E089E591E00E940A0285
:101E70006EE07CCE8091D501282F30E03093BF01F9
:101E80002093BE0190910C01981320C0F70194910A
:101E90002FEF20930C01913071F050F0933089F0C6
:101EA0009430A1F4909172009F7B909372000EC0C9
:101EB00010926E000BC090916F009D7F90936F0009
:101EC00005C0909171009D7F9093710060E00E9429
:101ED000B60769EF89E591E00E940A0261E089E5B1
:101EE00091E00E940A0260E141CE8091D50190E02C
:101EF0009093AF018093AE01009711F481E00CC084
:101F00008130910541F08230910511F482E004C0E6
:101F10008330910521F483E080930D0104C0049780
:101F200011F410920D0169EF89E591E00E940A0217
:101F300062E089E591E00E940A0262E189E591E0B0
:101F40000E940A026091AE0111CE8090D501882DC9
:101F500090E09093BF018093BE019090D601892DAF
:101F600090E09093AD018093AC018091D701809374
:101F7000AB01A090D801A092AA01811142C0612CAE
:101F8000712CB12CB501062C02C0759567950A9489
:101F9000E2F761707727882D0E94B60761E0892DEE
:101FA0000E94B60760E0892D0E94B607FFEF6F1A06
:101FB0007F0A28E06216710429F769EF89E591E04C
:101FC0000E940A0265E089E591E00E940A0264E14C
:101FD00089E591E00E940A026091BE0189E591E0E5
:101FE0000E940A026091AC0189E591E00E940A0218
:101FF0006091AB0189E591E00E940A026091AA011B
:10200000B5CD8130D1F697E0692E712CB12CB50198
:10201000062C02C0759567950A94E2F761707727E0
:10202000882D0E94B60761E0892D0E94B60760E006
:10203000892D0E94B60761E0661A710840F7BDCF8E
:102040007090D501872D90E09093BF018093BE01E1
:10205000B090D6018B2D90E09093AD018093AC01B0
:102060008091D7018093AB0181111CC0812C912CF0
:10207000A12C61E08B2D0E94B607872D0E948D0751
:10208000082C01C0880F0A94EAF7A82A60E08B2D7B
:102090000E94B6078FEF881A980AA8E08A16910462
:1020A00041F71BC08130D9F487E0882E912CA12CF8
:1020B00061E08B2D0E94B607872D0E948D07082CAA
:1020C00001C0880F0A94EAF7A82A60E08B2D0E94CD
:1020D000B607B1E08B1A910858F7A092A90169EFF1
:1020E00089E591E00E940A0265E089E591E00E949D
:1020F0000A0266E189E591E00E940A026091BE0150
:1021000089E591E00E940A026091AC0189E591E0C5
:102110000E940A026091AB0189E591E00E940A02E7
:102120006091A90123CD0E94E60AC114D10409F4EB
:1021300084CB0E94000081CBAA1BBB1B51E107C0CE
:10214000AA1FBB1FA617B70710F0A61BB70B881F47
:10215000991F5A95A9F780959095BC01CD010895D6
:10216000A1E21A2EAA1BBB1BFD010DC0AA1FBB1F9B
:10217000EE1FFF1FA217B307E407F50720F0A21B0D
:10218000B30BE40BF50B661F771F881F991F1A947A
:1021900069F760957095809590959B01AC01BD01A4
:1021A000CF010895052E97FB1EF400940E94E910BC
:1021B00057FD07D00E94B01007FC03D04EF40C94DA
:1021C000E91050954095309521953F4F4F4F5F4F07
:1021D000089590958095709561957F4F8F4F9F4F93
:1021E0000895EE0FFF1F0590F491E02D09940E94D1
:1021F0000211A59F900DB49F900DA49F800D911D7D
:1022000011240895A29FB001B39FC001A39F700D38
:10221000811D1124911DB29F700D811D1124911DEE
:062220000895F894FFCFC1
:10222600FFFFFFFF00E1000000000000FF010000CB
:1022360000000A02310620029302B1025F0200C1C9
:0622460080810000000091
:00000001FF
