:100000003CC100006AC1000068C1000066C1000078
:1000100064C1000062C1000060C100005EC1000058
:100020005CC100005AC1000058C1000056C1000068
:1000300054C100003FC3000050C100004EC1000089
:100040004CC100004AC1000048C1000046C1000088
:1000500044C1000042C1000040C10000E9C30000EB
:100060003CC10000AFC3000084C3000036C10000E3
:1000700034C1000032C1000030C100002EC10000B8
:100080002CC100002AC1000028C1000026C10000C8
:1000900024C1000022C1000020C100001EC10000D8
:1000A0001CC100001AC1000018C1000016C10000E8
:1000B00014C1000012C1000010C100000EC10000F8
:1000C0000CC100000AC1000008C1000006C1000008
:1000D00004C1000002C1000000C10000FEC0000019
:1000E000FCC00000AB02AE029D02A102A702E50225
:1000F000B202B602BC02C002C402CA02CE02D202DE
:10010000E502D802DC02E002430A4C0D560A4C0D0F
:100110006E0A4C0D960A4C0DBD0A4C0D050B4C0D8C
:10012000E70B4C0D240C4C0D380C4C0D690C4C0D90
:10013000DD0C300B350B3A0B440B4E0BC70B580B39
:10014000600B680B720B7C0B860B950B9F0BC70B20
:10015000A90BB30BBD0B00002100240027002A00CF
:100160002D003000330001010000040107010A01E5
:10017000000020002300260029002C002F00320060
:1001800000010000030106010901010210202008FE
:1001900008102040102040800201020108040201E2
:1001A0000102040810204080804020100804020151
:1001B00080040201804020100804020108040201AA
:1001C0000102040810204080010204081020408031
:1001D00000002200250028002B002E0031003400F2
:1001E00002010000050108010B01050505050705D1
:1001F00008080808020202020A0A080804040404A3
:1002000001010101010101010303030303030303CE
:10021000040707070C0C0C0C0C0C0C0C020202025D
:1002200006060606060606060B0B0B0B0B0B0B0B46
:100230000200000A0B02090C0D0E0807030401005E
:1002400000000000000000000000000000000000AE
:10025000000000000000000000000000001211106B
:10026000000000000000000000000000000000008E
:100270000000000000000000500D11241FBECFEF51
:10028000D1E2DEBFCDBF00E00CBF12E0A0E0B2E0E3
:10029000ECEEFBE100E00BBF02C007900D92A23133
:1002A000B107D9F723E0A2E1B2E001C01D92AC345E
:1002B000B207E1F711E0CDE3D1E000E006C02197FD
:1002C0000109802FFE010E94CF0DCC33D10780E0C1
:1002D0000807A9F71DD70C94F40D92CECF92DF92A8
:1002E000EF92FF920F931F93CF93DF936C017A01EC
:1002F0008B01C0E0D0E0CE15DF0589F0D8016D910B
:100300008D01D601ED91FC910190F081E02DC601A7
:100310001995892B11F47E0102C02196ECCFC701FB
:10032000DF91CF911F910F91FF90EF90DF90CF90D1
:100330000895FC01918D828D981761F0828DDF0107
:10034000A80FB11D5D968C91928D9F5F9F73928FC8
:1003500090E008958FEF9FEF0895FC01918D828DBD
:10036000981731F0828DE80FF11D858D90E008958A
:100370008FEF9FEF0895FC01918D228D892F90E0E2
:10038000805C9F4F821B91098F73992708958FEA94
:1003900092E0F1DF21E0892B09F420E0822F08951B
:1003A000FC01848DDF01A80FB11DA35ABF4F2C9112
:1003B000848D90E001968F739927848FA689B789E1
:1003C0002C93A089B1898C9180648C93938D848DBA
:1003D000981306C00288F389E02D80818F7D808389
:1003E0000895EF92FF920F931F93CF93DF93EC0149
:1003F00081E0888F9B8D8C8D981305C0E889F989E1
:10040000808185FD23C0F62E0B8D10E00F5F1F4FFE
:100410000F731127E02E8C8DE8120BC00FB607FC6E
:10042000FACFE889F989808185FFF5CFCE01B8DF61
:10043000F2CF8B8DFE01E80FF11DE35AFF4FF082E2
:100440000B8FEA89FB898081806207C0EE89FF8972
:100450006083E889F98980818064808381E090E00D
:10046000DF91CF911F910F91FF90EF900895CF935F
:10047000DF93EC01888D8823C1F0EA89FB898081B4
:1004800085FD05C0A889B9898C9186FD0EC00FB67F
:1004900007FCF5CF808185FFF2CFA889B9898C91BF
:1004A00085FFEDCFCE017CDFE8CFDF91CF910895BE
:1004B00080E090E0892B19F06ADF811125C080E08F
:1004C00090E0892B41F080E090E0892B21F00E94A0
:1004D000000081111CC080E090E0892B41F080E099
:1004E00090E0892B21F00E940000811113C080E070
:1004F00090E0892BA1F080E090E0892B81F00E94B0
:10050000000081110AC008950E940000D8CF0E9407
:100510000000E1CF0E940000EACF0C940000089593
:1005200090E0FC013197E231F10508F04EC08827D8
:10053000EE58FF4F8F4F0C94CF0D809180008F7736
:1005400003C0809180008F7D80938000089580910A
:100550008000877FF9CF84B58F7702C084B58F7D07
:1005600084BD08958091B0008F7703C08091B00062
:100570008F7D8093B0000895809190008F7707C0A1
:10058000809190008F7D03C080919000877F809341
:10059000900008958091A0008F7707C08091A000FF
:1005A0008F7D03C08091A000877F8093A000089575
:1005B000809120018F7707C0809120018F7D03C03B
:1005C00080912001877F8093200108951F93CF930E
:1005D000DF93282F30E0F901EF5CFD4F8491F901A2
:1005E000E657FE4FD491F901E651FE4FC491CC235A
:1005F000C1F0162F811194DFEC2FF0E0EE0FFF1FFA
:10060000E053FE4FA591B4918FB7F894111105C036
:100610009C91ED2FE095E92302C0EC91ED2BEC933A
:100620008FBFDF91CF911F91089590910002981391
:100630003DC0E0E3F2E0E4919FEF90930002E230EE
:10064000C9F050F4EE2399F0E13081F590916F00FC
:100650009D7F90936F002AC0E43019F1E0F0E530FF
:1006600029F5909173009D7F909373001FC01092A5
:100670006E001CC0909170009D7F9093700091E07F
:100680009093B0009091B100987F94609093B100E6
:100690001092B3000BC0909171009D7F90937100F8
:1006A00005C0909172009D7F9093720060E08ECFA4
:1006B0000E94F00D1F920F920FB60F9211240BB6ED
:1006C0000F922F933F934F935F936F937F938F93EB
:1006D0009F93AF93BF93EF93FF93809141029091CB
:1006E0004202A0914302B0914402892B8A2B8B2BAA
:1006F00051F180914002E0913E02F0913F029081E1
:10070000892780838091410290914202A091430207
:10071000B0914402181619061A061B06BCF4809103
:10072000410290914202A0914302B091440201978C
:10073000A109B1098093410290934202A093430220
:10074000B093440203C0809100026FDFFF91EF91EC
:10075000BF91AF919F918F917F916F915F914F91D9
:100760003F912F910F900BBE0F900FBE0F901F90D7
:1007700018951F920F920FB60F9211240BB60F927D
:100780002F933F934F935F936F937F938F939F9399
:10079000AF93BF93EF93FF938FEA92E001DEFF9157
:1007A000EF91BF91AF919F918F917F916F915F91E9
:1007B0004F913F912F910F900BBE0F900FBE0F9056
:1007C0001F9018951F920F920FB60F9211240BB61F
:1007D0000F922F938F939F93EF93FF93E091BF021C
:1007E000F091C0028081E091C502F091C60282FDC5
:1007F00012C090818091C8028F5F8F732091C902CF
:10080000821751F0E091C802F0E0E155FD4F958F5D
:100810008093C80201C08081FF91EF919F918F91D9
:100820002F910F900BBE0F900FBE0F901F90189539
:100830001F920F920FB60F9211242F933F938F9315
:100840009F93AF93BF938091170290911802A0914C
:100850001902B0911A023091160223E0230F2D37AE
:1008600020F40196A11DB11D05C026E8230F0296B4
:10087000A11DB11D209316028093170290931802B8
:10088000A0931902B0931A02809112029091130260
:10089000A0911402B09115020196A11DB11D809383
:1008A000120290931302A0931402B0931502BF9109
:1008B000AF919F918F913F912F910F900FBE0F900D
:1008C0001F901895682F8FEA92E08BCD682F8FEAE2
:1008D00092E087CDCF93DF93282F30E0F901EF5CD2
:1008E000FD4F8491F901E657FE4FD491F901E6518D
:1008F000FE4FC491CC2389F0811112DEEC2FF0E081
:10090000EE0FFF1FE059FE4FA591B491EC91ED233E
:1009100081E090E021F480E002C080E090E0DF918F
:10092000CF910895CF93DF9390E0FC01E657FE4FFF
:100930002491FC01E651FE4F8491882361F190E0FF
:10094000880F991FFC01EA5AFE4FC591D491FC0112
:10095000E053FE4FA591B491611109C09FB7F8947F
:100960008881209582238883EC912E230BC06230EE
:1009700061F49FB7F8943881822F80958323888310
:10098000EC912E2B2C939FBF06C08FB7F894E88173
:100990002E2B28838FBFDF91CF9108953F924F92E6
:1009A0005F926F927F928F929F92AF92BF92CF92FF
:1009B000DF92EF92FF920F931F93CF93DF9300D0BC
:1009C0001F92CDB7DEB729013A0190910002981726
:1009D00021F09F3F09F025C304C0E0E3F2E034902A
:1009E00004C180930002E0E3F2E0E491EF3F09F4F8
:1009F00018C3E23009F480C074F5EE2309F45BC03B
:100A0000E13009F0F1C010928000109281009091C5
:100A10008100986090938100909181009160909303
:100A20008100282F30E0F901E651FE4FE491F0E01B
:100A3000EE0FFF1FE053FE4F459154915093260255
:100A400040932502F901E657FE4FE491E09324021A
:100A500033243394CCC0E43009F49EC00CF474C049
:100A6000E53009F0C1C0109220011092210190914F
:100A700021019860909321019091210191609093C0
:100A80002101482F50E0FA01E651FE4FE491F0E0D9
:100A9000EE0FFF1FE053FE4F2591349130931D025E
:100AA00020931C02FA01E657FE4FE491E0931B02EB
:100AB000B5E03B2E9CC014BC15BC94B5926094BDAF
:100AC00095B5916095BD282F30E0F901E651FE4FB4
:100AD000E491F0E0EE0FFF1FE053FE4F459154917B
:100AE0005093290240932802F901E657FE4FE49102
:100AF000E0932702312C7BC01092B0001092B1001D
:100B00009091B00092609093B0009091B10091608C
:100B10009093B100282F30E0F901E651FE4FE491A7
:100B2000F0E0EE0FFF1FE053FE4F459154915093BC
:100B30003F0240933E02F901E657FE4FE491E093F5
:100B4000400252E0352E53C0109290001092910056
:100B50009091910098609093910090919100916094
:100B600090939100282F30E0F901E651FE4FE49177
:100B7000F0E0EE0FFF1FE053FE4F4591549150936C
:100B8000230240932202F901E657FE4FE491E093DD
:100B9000210223E0322E2BC01092A0001092A1005F
:100BA0009091A10098609093A1009091A100916014
:100BB0009093A100282F30E0F901E651FE4FE49117
:100BC000F0E0EE0FFF1FE053FE4F4591549150931C
:100BD000200240931F02F901E657FE4FE491E09393
:100BE0001E0204E0302E03C03E2E37FC1AC28B01D9
:100BF00061E098DE4801A12CB12C832D8D7F09F096
:100C0000B5C060E072E18AE790E0A5019401ABD73E
:100C100029833A834B835C8369017A0121E0C21AFC
:100C2000D108E108F1088FEFC816D104E104F104FE
:100C300009F008F449C060E472E48FE090E0A50197
:100C4000940191D769017A0191E0C91AD108E108AC
:100C5000F108E2E03E121FC0FFEFCF16D104E1041D
:100C6000F10409F008F4DBC160E970ED83E090E085
:100C7000A501940178D769017A0181E0C81AD108E9
:100C8000E108F1089FEFC916D104E104F10409F06D
:100C9000C8F583E064C0EFEFCE16D104E104F1049F
:100CA000A9F0A0F068E478EE81E090E0A50194015D
:100CB0005AD769017A01F1E0CF1AD108E108F108A9
:100CC000332009F454C1A2C181E001C082E0332085
:100CD000A1F045C089819A81AB81BC812AE0B5959C
:100CE000A795979587952A95D1F76C017D01F1E03D
:100CF000CF1AD108E108F10885E095B5987F892BD6
:100D000085BDA2C068E478EE81E090E0A501940181
:100D10002AD769017A0181E0C81AD108E108F108EF
:100D20009FEFC916D104E104F10409F008F41DC1D4
:100D300064E274EF80E090E0A501940114D76901AA
:100D40007A0181E0C81AD108E108F1089FEFC916BD
:100D5000D104E104F10411F008F02AC185E090917A
:100D6000B100987F892B8093B1006EC060E072E182
:100D70008AE790E0A5019401F6D669017A01F1E0D5
:100D8000CF1AD108E108F108C114D10421E0E2062C
:100D9000F10480F068E478EE81E090E0A501940130
:100DA000E2D669017A0181E0C81AD108E108F108A8
:100DB00083E001C081E091E0391210C09091810080
:100DC000987F892B80938100411451046104710440
:100DD00009F03FC02FEF3FEFA9016FC0E3E03E12E3
:100DE0000FC090919100987F892B809391004114BE
:100DF00051046104710469F52FEF3FEFA9017FC031
:100E0000F4E03F120FC09091A100987F892B80934E
:100E1000A1004114510461047104D9F42FEF3FEF94
:100E2000A9017FC025E032120FC090912101987F67
:100E3000892B80932101411451046104710449F408
:100E40002FEF3FEFA9017FC04114510461047104E9
:100E500061F0D801AA0FBB1FA3019201A8D628EE0A
:100E600033E040E050E05DD603C02FEF3FEFA90133
:100E700082E03816A1F1831534F0332079F091E047
:100E80003916D9F0CEC0E4E03E1609F44AC03E1649
:100E9000B4F1F5E03F1609F456C0C3C0C7BC2093B7
:100EA0003A0230933B0240933C0250933D028091C2
:100EB0006E00826080936E00B4C0D0928900C092B0
:100EC00088002093360230933702409338025093C3
:100ED000390280916F00826080936F00A2C0C0923F
:100EE000B300209341023093420240934302509357
:100EF00044028091700082608093700092C0D09212
:100F00009900C092980020933202309333024093AC
:100F10003402509335028091710082608093710099
:100F200080C0D092A900C092A80020932E023093D6
:100F30002F02409330025093310280917200826000
:100F4000809372006EC0D0922901C0922801209334
:100F50002A0230932B0240932C0250932D02809151
:100F600073008260809373005CC084E0F8CE2FEF42
:100F7000C216D104E104F104C9F0C0F062E17AE7DD
:100F800080E090E0A5019401EED569017A01E1E0ED
:100F9000CE1AD108E108F108FFEFCF16D104E10421
:100FA000F10411F008F096CE84E0A7CE83E0A5CE40
:100FB00062E17AE780E090E0A5019401D4D569016F
:100FC0007A0181E0C81AD108E108F1089FEFC9163B
:100FD000D104E104F104C1F0B8F089819A81AB81B8
:100FE000BC814AE0B595A795979587954A95D1F725
:100FF0006C017D01E1E0CE1AD108E108F10833204F
:1010000009F47ACE87E0ABCE86E061CEEFEFCE1664
:10101000D104E104F10409F058F684E058CE82E0EE
:101020009ECE0F900F900F900F90DF91CF911F9158
:101030000F91FF90EF90DF90CF90BF90AF909F9077
:101040008F907F906F905F904F903F9008956FEEDC
:101050008FEA92E0C6D96FEE8FEA92E0C2D96FEEC6
:101060008FEA92E0BED98FEA92E001CACF92DF9276
:10107000EF92FF920F931F93CF93DF9300D01F92B5
:10108000CDB7DEB79FB7F894C0901702D090180282
:10109000E0901902F0901A029FBF082F10E08FEA2B
:1010A00092E049835A836B837C8365D949815A8155
:1010B0006B817C8180179107A4F42FB7F8948091FD
:1010C000170290911802A0911902B0911A022FBF35
:1010D0008C199D09AE09BF0984179507A607B707A4
:1010E000F0F28FEA92E047D9801791071CF4AFDF46
:1010F00080E001C081E00F900F900F900F90DF9182
:10110000CF911F910F91FF90EF90DF90CF900895B6
:10111000789484B5826084BD84B5816084BD85B5D2
:10112000826085BD85B5816085BD80916E008160DE
:1011300080936E0010928100809181008260809384
:101140008100809181008160809381008091800086
:101150008160809380008091B10084608093B100B1
:101160008091B00081608093B00080919100826096
:101170008093910080919100816080939100809193
:1011800090008160809390008091A10082608093A4
:10119000A1008091A10081608093A1008091A000B6
:1011A00081608093A0008091210182608093210161
:1011B00080912101816080932101809120018160D3
:1011C0008093200180917A00846080937A008091DE
:1011D0007A00826080937A0080917A0081608093A7
:1011E0007A0080917A00806880937A001092C10022
:1011F000E091BF02F091C00282E08083E091BB02E7
:10120000F091BC021082E091BD02F091BE0280E13B
:1012100080831092C702E091C302F091C40286E07D
:101220008083E091C102F091C2028081806180835D
:10123000E091C102F091C202808188608083E091D8
:10124000C102F091C202808180688083E091C10276
:10125000F091C20280818F7D8083EE24EA94F12C8C
:10126000A2E0CA2EEFE6F2E0119242E0EF3AF40774
:10127000D9F78FEA92E07FD80497D8F38FEA92E00B
:1012800058D880936E028F3F09F007C48FEA92E02E
:1012900050D880936E028E3F09F0FFC38FEA92E030
:1012A00048D880936E028D3F09F0F7C38FEA92E031
:1012B00040D880936E028C3F09F0EFC38CEF90E032
:1012C00005DB8DEF90E002DB8EEF90E0FFDA8FEF31
:1012D00090E0FCDA8FEA92E0CAD84AEF50E060E092
:1012E00070E083E0C3DE882309F4D7C38FEA92E07D
:1012F00020D88B3F910509F0D0C38FEA92E019D82E
:10130000182F80936D028FEA92E013D8EC01982E8B
:1013100080936C02682F8FEA92E063D8612F8FEA86
:1013200092E05FD86BEF8FEA92E05BD88FEA92E0B1
:101330009ED848EE53E060E070E08C2F8C5F96DE24
:10134000882309F4AAC3EFE66E2EE2E07E2EDD27A5
:101350005E01B3E0AB0EB11CC3018F569240A816DC
:10136000B90644F08FEA92E00E949901D3018D936F
:101370003D01F2CF2296FE01E159FD4FD080D0927F
:101380006B02F501E159FD4F008100936A0248EEBE
:1013900053E060E070E081E069DE882309F47DC3FA
:1013A0008FEA92E00E9499018A3F910509F075C386
:1013B0007FE6A72E72E0B72EE0E0F0E020E030E01C
:1013C000C5018F5692408C179D0780F4D5018D91F1
:1013D0005D01A901480F511DCA01B7018ED39C01BF
:1013E0008E0F9F1FB70189D3FC01EACFFE2FEE2796
:1013F0002E2B3F2B3093690220936802F901FF27BF
:10140000F0936702E0936602232F3327309365023F
:1014100020936402C9018E0F9F1FB7016ED39701FD
:10142000281B390B3093630220936202C9018E0F8F
:101430009F1FB70162D3A701481B590B509361024C
:10144000409360028D2D90E02817390709F024C3DE
:10145000802F90E04817590709F01EC380916F0252
:1014600018131AC380917002981216C3812F90E04E
:10147000FC013197E531F10508F00EC38827EC57E0
:10148000FF4F8F4F8CC369EF8FEA92E00E94F1010A
:1014900083E090E01BDA62E08FEA92E00E94F101C3
:1014A00081E090E00FDA82E090E010C2809171025A
:1014B000082F10E010935F0200935E020BDAEC013C
:1014C00090935D0280935C0269EF8FEA92E00E9444
:1014D000F10183E090E0FAD964E021C080917102CB
:1014E000082F10E010935B0200935A02C091720221
:1014F000D0E0D0935D02C0935C02209711F460E0CD
:1015000004C0C130D10511F461E060D869EF8FEA01
:1015100092E00E94F10183E090E0D8D966E08FEA82
:1015200092E00E94F101C801CDD9CFC18091710232
:10153000082F10E010935B0200935A02C0917202D0
:10154000D0E0D0935D02C0935C02209711F460E07C
:1015500009C0C130D10511F462E004C0C230D10528
:1015600011F461E0DFD969EF8FEA92E00E94F101A6
:1015700083E090E0ABD968E0D2CF80917102282F50
:1015800030E03093590220935802863308F0865396
:1015900090917B00282F2870977F922B90937B004F
:1015A00087702091010250E4259F90011124822B25
:1015B00080937C0080917A00806480937A0080918F
:1015C0007A0086FDFCCFC091780080917900D0E050
:1015D000D82BD0935702C093560269EF8FEA92E05E
:1015E0000E94F10184E090E071D96AE08FEA92E014
:1015F0000E94F101809158029091590263D98D2F78
:1016000090E060D9CE01992761C1D09071020D2D73
:1016100010E01093550200935402B0907202CB2D4B
:10162000D0E0D0935302C093520261E08D2D7AD95D
:10163000209709F4AFC0CF3FD10509F4ADC0F80140
:10164000EF5CFD4FE4914E2F50E0FA013197E2310B
:10165000F10508F09CC08827E756FF4F8F4F9FC2C7
:1016600084B5806884BDB7BC9BC084B5806284BDEE
:10167000B8BC96C080918000806880938000D09331
:101680008900C09388008CC0809180008062809324
:101690008000D0938B00C0938A0082C0809180002C
:1016A000886080938000D0938D00C0938C0078C0B8
:1016B0008091B00080688093B000B092B30070C099
:1016C0008091B00080628093B000B092B40068C096
:1016D00080919000806880939000D0939900C0938F
:1016E00098005EC080919000806280939000D093BB
:1016F0009B00C0939A0054C08091900088608093B2
:101700009000D0939D00C0939C004AC08091A0009F
:1017100080688093A0008091A0008F7B8093A000C0
:10172000D093A900C093A8003BC08091A000806224
:101730008093A000D093AB00C093AA0031C08091E9
:10174000A00088608093A000D093AD00C093AC004F
:1017500027C080912001806880932001D0932901C7
:10176000C09328011DC080912001806280932001D8
:10177000D0932B01C0932A0113C08091200188606F
:1017800080932001D0932D01C0932C0109C0C03853
:10179000D10514F460E001C061E08D2D0E94E602E5
:1017A00069EF8FEA92E00E94F10183E090E08ED829
:1017B0006CE08FEA92E00E94F101809154029091D6
:1017C000550280D880915202909153027FC080913F
:1017D0007102282F30E030935B0220935A0260910F
:1017E000720270E0762F662790917302690F711D67
:1017F00070935102609350022091760230E0322FB4
:10180000222790917702290F311D032E000C440BE3
:10181000550B20934C0230934D0240934E0250934F
:101820004F02211531054105510519F420E030E042
:10183000A901B4D869EF8FEA92E00E94F10181E03A
:1018400090E044D86EE01FC180917102282F30E0F3
:1018500030935B0220935A020E94150369EF8FEACE
:1018600092E00E94F10181E090E030D860E10BC18C
:10187000C0917102D0E0D0934B02C0934A022097EE
:1018800011F481E00DC0C130D10549F0C230D1055D
:1018900019F4C09201020CC0C330D10521F483E0D9
:1018A0008093010205C0C430D10511F410920102E9
:1018B00069EF8FEA92E00E94F10182E090E006D8A1
:1018C00062E18FEA92E00E94F101CE010E9462047F
:1018D000DEC000917102A02EB12CB0925B02A092EA
:1018E0005A02C09172028C2E912C909249028092E1
:1018F0004802D0917302D093470210917402109362
:101900004602D1113AC0412C512C612E712CB301E9
:10191000042C02C0759567950A94E2F761707727E9
:10192000802F0E94E60261E08C2F0E94E60260E0B8
:101930008C2F0E94E6028FEF481A580A98E0491649
:10194000510429F769EF8FEA92E00E94F10185E0E6
:1019500090E00E94660464E18FEA92E00E94F10147
:10196000C5010E946204C4010E9462046D2F8FEAC7
:1019700092E00E94F101612F86C0D13019F787E013
:10198000482E512C612E712CB301042C02C0759588
:1019900067950A94E2F761707727802F0E94E6022C
:1019A00061E08C2F0E94E60260E08C2F0E94E6022C
:1019B000A1E04A1A510840F7C5CF70907102872CF8
:1019C000912C90925B0280925A02C0917202AC2ECE
:1019D000B12CB0924902A0924802D0917302D093E8
:1019E0004702D1111AC000E010E0D12C61E08C2F29
:1019F0000E94E602872D0E946A04002E01C0880F13
:101A00000A94EAF7D82A60E08C2F0E94E6020F5F62
:101A10001F4F0830110551F719C0D130C9F407E044
:101A200010E0D12C61E08C2F0E94E602872D0E94ED
:101A30006A04002E01C0880F0A94EAF7D82A60E0F1
:101A40008C2F0E94E6020150110960F7D0924502E6
:101A500069EF8FEA92E00E94F10185E090E00E9438
:101A6000660466E18FEA92E00E94F101C4010E94DF
:101A70006204C5010E9462046D2F8FEA92E00E9409
:101A8000F101609145028FEA92E00E94F1018FEA34
:101A900092E00E94370201C0DADA0E945802E2CBDB
:101AA000EFEAF2E01382128288EE93E0A0E0B0E069
:101AB00084839583A683B78386E092E091838083B5
:101AC00085EC90E09587848784EC90E09787868703
:101AD00080EC90E0918B808B81EC90E0938B828BFB
:101AE00082EC90E0958B848B86EC90E0978B868BD4
:101AF000118E128E138E148E0895AA1BBB1B51E1FA
:101B000007C0AA1FBB1FA617B70710F0A61BB70B6D
:101B1000881F991F5A95A9F780959095BC01CD0112
:101B20000895A1E21A2EAA1BBB1BFD010DC0AA1F1E
:101B3000BB1FEE1FFF1FA217B307E407F50720F036
:101B4000A21BB30BE40BF50B661F771F881F991FB1
:101B50001A9469F760957095809590959B01AC01FA
:101B6000BD01CF010895052E97FB16F400940FD008
:101B700057FD05D0D6DF07FC02D046F408C05095CB
:101B80004095309521953F4F4F4F5F4F0895909569
:101B90008095709561957F4F8F4F9F4F0895EE0F01
:101BA000FF1F881F8BBF0790F691E02D199409D075
:101BB000A59F900DB49F900DA49F800D911D1124A1
:101BC0000895A29FB001B39FC001A39F700D811D16
:101BD0001124911DB29F700D811D1124911D089536
:0C1BE00081E090E0F89400C0F894FFCF82
:101BEC00FF0100000000F1016E01BB019901AD0184
:021BFC003702AE
:00000001FF
