:100000000C9474000C949C000C949C000C949C0028
:100010000C949C000C949C000C949C000C941B026F
:100020000C949C000C949C000C949C000C949C00E0
:100030000C949C000C949C000C949C000C949C00D0
:100040000C94CF020C949C000C949D020C947702AB
:100050000C949C000C949C000C949C000C949C00B0
:100060000C949C000C949C00D407D909E907D90989
:100070002B08D9095108D9098408D909C708D90911
:100080004609D9098909D9099E0900000000240000
:1000900027002A0000000000250028002B00020095
:1000A00000000023002600290004040404040404C2
:1000B0000402020202020203030303030301020417
:1000C00008102040800102040810200102040810DA
:1000D00020000000080002010000030407000000E7
:1000E000000000000000DE0911241FBECFEFD8E0A1
:1000F000DEBFCDBF11E0A0E0B1E0EEE0F5E102C06F
:1001000005900D92A231B107D9F722E0A2E1B1E04A
:1001100001C01D92A233B207E1F710E0C4E7D0E0BE
:1001200004C02197FE010E94600AC337D107C9F7B6
:100130000E942F060C94850A0C940000CF92DF9247
:10014000EF92FF920F931F93CF93DF936C017A018D
:100150008B01C0E0D0E0CE15DF0589F0D8016D91AC
:100160008D01D601ED91FC910190F081E02DC60149
:100170000995892B11F47E0102C02196ECCFC701AD
:10018000DF91CF911F910F91FF90EF90DF90CF9073
:100190000895FC01918D828D981761F0828DDF01A9
:1001A000A80FB11D5D968C91928D9F5F9F73928F6A
:1001B00090E008958FEF9FEF0895FC01918D828D5F
:1001C000981731F0828DE80FF11D858D90E008952C
:1001D0008FEF9FEF0895FC01918D228D892F90E084
:1001E000805C9F4F821B91098F739927089585E941
:1001F00091E00E94EB0021E0892B09F420E0822F9E
:100200000895FC01848DDF01A80FB11DA35ABF4FD3
:100210002C91848D90E001968F739927848FA68905
:10022000B7892C93A089B1898C9180648C93938D2C
:10023000848D981306C00288F389E02D80818F7D1C
:1002400080830895EF92FF920F931F93CF93DF93D4
:10025000EC0181E0888F9B8D8C8D981305C0E88917
:10026000F989808185FD24C0F62E0B8D10E00F5F8B
:100270001F4F0F731127E02E8C8DE8120CC00FB6A4
:1002800007FCFACFE889F989808185FFF5CFCE0197
:100290000E940101F1CF8B8DFE01E80FF11DE35AA1
:1002A000FF4FF0820B8FEA89FB898081806207C053
:1002B000EE89FF896083E889F98980818064808381
:1002C00081E090E0DF91CF911F910F91FF90EF902F
:1002D0000895CF93DF93EC01888D8823C9F0EA89D4
:1002E000FB89808185FD05C0A889B9898C9186FD2F
:1002F0000FC00FB607FCF5CF808185FFF2CFA8892C
:10030000B9898C9185FFEDCFCE010E940101E7CF25
:10031000DF91CF91089580E090E0892B29F00E9431
:10032000F70081110C9400000895833081F028F4C7
:10033000813099F08230A1F008958730A9F088309B
:10034000B9F08430D1F4809180008F7D03C080911A
:1003500080008F7780938000089584B58F7702C0E6
:1003600084B58F7D84BD08958091B0008F7703C0E0
:100370008091B0008F7D8093B00008951F93CF933C
:10038000DF93282F30E0F901EF52FF4F8491F901FC
:10039000E354FF4FD491F901E755FF4FC491CC23AB
:1003A000C9F0162F81110E949501EC2FF0E0EE0F9D
:1003B000FF1FEC56FF4FA591B4918FB7F894111120
:1003C00005C09C91ED2FE095E92302C0EC91ED2B47
:1003D000EC938FBFDF91CF911F9108959091000111
:1003E000981324C0EEE9F0E0E4919FEF90930001B0
:1003F000E130B9F098F0E230C9F4909170009D7F3F
:100400009093700091E09093B0009091B100987F2C
:1004100094609093B1001092B30008C010926E00E7
:1004200005C090916F009D7F90936F0060E00C94E9
:10043000BE010E94800A1F920F920FB60F921124E4
:100440002F933F934F935F936F937F938F939F93DC
:10045000AF93BF93EF93FF9380912C0190912D0167
:10046000A0912E01B0912F01892B8A2B8B2B51F15A
:1004700080912B01E0912901F0912A019081892737
:10048000808380912C0190912D01A0912E01B0913B
:100490002F01181619061A061B06C4F480912C01A8
:1004A00090912D01A0912E01B0912F010197A109EA
:1004B000B10980932C0190932D01A0932E01B0934C
:1004C0002F0104C0809100010E94EE01FF91EF9185
:1004D000BF91AF919F918F917F916F915F914F915C
:1004E0003F912F910F900FBE0F901F9018951F9264
:1004F0000F920FB60F9211242F933F934F935F9358
:100500006F937F938F939F93AF93BF93EF93FF93DB
:1005100085E991E00E940101FF91EF91BF91AF91B8
:100520009F918F917F916F915F914F913F912F910B
:100530000F900FBE0F901F9018951F920F920FB63D
:100540000F9211242F938F939F93EF93FF93E0913A
:10055000A501F091A6018081E091AB01F091AC0181
:1005600082FD12C090818091AE018F5F8F732091C8
:10057000AF01821751F0E091AE01F0E0EB56FE4F73
:10058000958F8093AE0101C08081FF91EF919F9183
:100590008F912F910F900FBE0F901F9018951F9263
:1005A0000F920FB60F9211242F933F938F939F9327
:1005B000AF93BF938091170190911801A0911901F9
:1005C000B0911A013091160123E0230F2D3720F44A
:1005D0000196A11DB11D05C026E8230F0296A11D9D
:1005E000B11D209316018093170190931801A093D9
:1005F0001901B0931A018091120190911301A091F9
:100600001401B09115010196A11DB11D8093120135
:1006100090931301A0931401B0931501BF91AF9172
:100620009F918F913F912F910F900FBE0F901F9030
:100630001895682F85E991E00C942201682F85E9CF
:1006400091E00C942201CF93DF9390E0FC01E354FE
:10065000FF4F2491FC01E755FF4F8491882361F1FE
:1006600090E0880F991FFC01E657FF4FC591D49188
:10067000FC01EC56FF4FA591B491611109C09FB7E1
:10068000F8948881209582238883EC912E230BC0D7
:10069000623061F49FB7F8943881822F809583236C
:1006A0008883EC912E2B2C939FBF06C08FB7F894B4
:1006B000E8812E2B28838FBFDF91CF9108953F9241
:1006C0004F925F926F927F928F929F92AF92BF9262
:1006D000CF92DF92EF92FF920F931F93CF93DF930E
:1006E00000D000D0CDB7DEB790910001981721F06F
:1006F0009F3F09F036C204C0EEE9F0E0349081C0BB
:1007000080930001EEE9F0E0E491EF3F09F429C2A3
:10071000E13031F1E23009F44BC0E11171C014BC99
:1007200015BC94B5926094BD95B5916095BDA82F08
:10073000B0E0FD01E755FF4FE491F0E0EE0FFF1F41
:10074000EC56FF4F059114911093200100931F0167
:10075000FD01E354FF4FE491E0931E01312C53C09F
:100760001092800010928100909181009860909387
:10077000810090918100916090938100A82FB0E05A
:10078000FD01E755FF4FE491F0E0EE0FFF1FEC563F
:10079000FF4F0591149110931D0100931C01FD0161
:1007A000E354FF4FE491E0931B01332433942BC0B7
:1007B0001092B0001092B1009091B00092609093AE
:1007C000B0009091B10091609093B100A82FB0E07B
:1007D000FD01E755FF4FE491F0E0EE0FFF1FEC56EF
:1007E000FF4F0591149110932A0100932901FD01F7
:1007F000E354FF4FE491E0932B0102E0302E03C05D
:100800003E2E37FCAEC129013A018B0161E00E9406
:1008100023034801A12CB12C832D8D7F09F0BBC08F
:1008200060E072E18AE790E0A50194010E94410A2C
:1008300029833A834B835C8369017A0121E0C21AE0
:10084000D108E108F1088FEFC816D104E104F104E2
:1008500009F008F44CC060E472E48FE090E0A50178
:1008600094010E94410A69017A01E1E0CE1AD1089F
:10087000E108F108F2E03F1220C02FEFC216D104C8
:10088000E104F10409F008F46AC160E970ED83E065
:1008900090E0A50194010E94410A69017A0181E07A
:1008A000C81AD108E108F108EFEFCE16D104E1042F
:1008B000F10409F0D0F583E067C0FFEFCF16D10453
:1008C000E104F104B1F0A8F068E478EE81E090E092
:1008D000A50194010E94410A69017A0181E0C81AC8
:1008E000D108E108F108332009F4DFC02FC181E00D
:1008F00001C082E03320A1F047C089819A81AB8199
:10090000BC812AE0B595A795979587952A95D1F74B
:100910006C017D0121E0C21AD108E108F10885E0EF
:1009200095B5987F892B85BD6FC068E478EE81E02E
:1009300090E0A50194010E94410A69017A01F1E069
:10094000CF1AD108E108F1082FEFC216D104E10453
:10095000F10409F008F4A7C064E274EF80E090E0CD
:10096000A50194010E94410A69017A01E1E0CE1AD1
:10097000D108E108F108FFEFCF16D104E104F1043A
:1009800011F008F0B4C085E09091B100987F892BF8
:100990008093B10039C060E072E18AE790E0A50180
:1009A00094010E94410A69017A0181E0C81AD108C4
:1009B000E108F108C114D104E1E0EE06F10488F089
:1009C00068E478EE81E090E0A50194010E94410A7C
:1009D00069017A01F1E0CF1AD108E108F10893E04A
:1009E00001C091E021E032120FC080918100887F28
:1009F000892B80938100411451046104710449F4EE
:100A00002FEF3FEFA9012DC041145104610471047F
:100A100071F0D801AA0FBB1FA30192010E94660AC0
:100A200028EE33E040E050E00E941F0A03C02FEFA1
:100A30003FEFA90181E03816A1F0E2E03E1619F17E
:100A400031108FC0C7BC20932501309326014093FD
:100A500027015093280180916E00826080936E0080
:100A600080C0D0928900C0928800209321013093E9
:100A70002201409323015093240180916F008260F2
:100A800080936F006EC0C092B30020932C0130930E
:100A90002D0140932E0150932F01809170008260B0
:100AA000809370005EC084E06FCFFFEFCF16D1045B
:100AB000E104F104D1F0C8F062E17AE780E090E06F
:100AC000A50194010E94410A69017A0181E0C81AD6
:100AD000D108E108F108EFEFCE16D104E104F104EA
:100AE00011F008F00ACF84E01BCF83E019CF62E158
:100AF0007AE780E090E0A50194010E94410A690133
:100B00007A0181E0C81AD108E108F108EFEFCE16AA
:100B1000D104E104F104C1F0B8F089819A81AB817C
:100B2000BC814AE0B595A795979587954A95D1F7E9
:100B30006C017D0121E0C21AD108E108F1083320DF
:100B400009F4EDCE87E020CF86E0D4CEFFEFCF16BC
:100B5000D104E104F10409F050F684E0CBCE82E048
:100B600013CF0F900F900F900F90DF91CF911F91A7
:100B70000F91FF90EF90DF90CF90BF90AF909F903C
:100B80008F907F906F905F904F903F9008956FEEA1
:100B900085E991E00E9422016FEE85E991E00E94D3
:100BA00022016FEE85E991E00E94220185E991E042
:100BB0000C946901CF92DF92EF92FF920F931F93F3
:100BC000CF93DF9300D000D0CDB7DEB79FB7F894B6
:100BD000C0901701D0901801E0901901F0901A010F
:100BE0009FBF082F10E085E991E049835A836B830A
:100BF0007C830E94EB0049815A816B817C81801744
:100C00009107A4F42FB7F8948091170190911801DF
:100C1000A0911901B0911A012FBF8C199D09AE093D
:100C2000BF0984179507A607B707E8F285E991E0A1
:100C30000E94EB008017910724F40E94C70580E012
:100C400001C081E00F900F900F900F90DF91CF9136
:100C50001F910F91FF90EF90DF90CF9008957894BF
:100C600084B5826084BD84B5816084BD85B58260B1
:100C700085BD85B5816085BD80916E008160809362
:100C80006E001092810080918100826080938100CB
:100C900080918100816080938100809180008160DB
:100CA000809380008091B10084608093B100809136
:100CB000B00081608093B00080917A00846080935E
:100CC0007A0080917A00826080937A0080917A0025
:100CD000816080937A0080917A00806880937A00A6
:100CE0001092C100E091A501F091A60182E08083FD
:100CF000E091A101F091A2011082E091A301F09195
:100D0000A40180E180831092AD01E091A901F091EE
:100D1000AA0186E08083E091A701F091A80180817B
:100D200080618083E091A701F091A80180818860B3
:100D30008083E091A701F091A80180818068808381
:100D4000E091A701F091A80180818F7D8083CFEF92
:100D5000D0E002E0E5E5F1E0119241E0E539F40789
:100D6000D9F785E991E00E94EB000497D0F385E97B
:100D700091E00E94C900809354018F3F09F01BC38A
:100D800085E991E00E94C900809354018E3F09F0EB
:100D900012C385E991E00E94C900809354018D3F00
:100DA00009F009C385E991E00E94C90080935401CC
:100DB0008C3F09F000C38CEF90E00E941E038DEF82
:100DC00090E00E941E038EEF90E00E941E038FEFC2
:100DD00090E00E941E0385E991E00E9469014AEFBC
:100DE00050E060E070E083E00E94DA05882309F4B7
:100DF000E2C285E991E00E94C9008B3F910509F0AC
:100E0000DAC285E991E00E94C900182F809353014E
:100E100085E991E00E94C9007C01982E80935201DF
:100E2000682F85E991E00E942201612F85E991E018
:100E30000E9422016BEF85E991E00E94220185E981
:100E400091E00E94690148EE53E060E070E084E0C8
:100E50008E0D0E94DA05882309F4ADC2F5E5CF2E88
:100E6000F1E0DF2EFF245701B3E0AB0EB11CC60149
:100E700085559140A816B90644F085E991E00E9495
:100E8000C900D6018D936D01F2CFE2E0EE0EF11CA8
:100E9000F701EB5AFE4FC080C0925101F501EB5AA9
:100EA000FE4FD080D092500148EE53E060E070E0F9
:100EB00081E00E94DA05882309F47DC285E991E08A
:100EC0000E94C9008A3F910509F075C2E5E5AE2E82
:100ED000E1E0BE2EE0E0F0E020E030E0C501855525
:100EE00091408E159F0590F4D5018D915D01A9016A
:100EF000480F511DCA01BE010E940B0A9C018E0FB2
:100F00009F1FBE010E940B0AFC01E8CFFE2FEE27B7
:100F10002E2B3F2B30934F0120934E01F901FF27D9
:100F2000F0934D01E0934C01232F332730934B0175
:100F300020934A01C9018E0F9F1FBE010E940B0A18
:100F40009E01281B390B3093490120934801C901A8
:100F50008E0F9F1FBE010E940B0AAE01481B590B4A
:100F600050934701409346018C2D90E02817390794
:100F700009F01FC28D2D90E04817590709F019C2DA
:100F800080915501181315C280915601981211C213
:100F9000812F90E0FC013197E131F10508F009C2A1
:100FA000EC5CFF4F0C94600A69EF85E991E00E94C8
:100FB000220183E090E00E941E0362E085E991E057
:100FC0000E94220181E090E00E94190381E090E0FC
:100FD000E9C1E0905701F12CF0924501E092440103
:100FE000F701EF52FF4F8491F701E354FF4FD49084
:100FF000F701E755FF4F1491112399F081110E94D9
:101000009501E12FF0E0EE0FFF1FE156FF4FA59194
:10101000B491EC91ED2181E010E009F480E0D82E4C
:1010200002C0D12C10E0D09242011093430169EF2D
:1010300085E991E00E94220183E090E00E941E0376
:1010400064E085E991E00E942201C7010E94190332
:101050008D2D912FA7C180915701C82ED12CD092F0
:101060004101C0924001E0905801F12CF0924301FF
:10107000E0924201E114F10411F460E005C051E096
:10108000E516F10419F461E00E94BE0169EF85E9FB
:1010900091E00E94220183E090E00E941E0366E03E
:1010A0002BC080915701C82ED12CD0924101C09203
:1010B0004001E0905801F12CF0924301E09242018E
:1010C000E114F10411F460E00BC091E0E916F104C1
:1010D00011F462E005C0A2E0EA16F10419F461E03F
:1010E0000E94230369EF85E991E00E94220183E0D9
:1010F00090E00E941E0368E085E991E00E942201D1
:10110000C6010E9419034DC180915701282F30E07C
:1011100030933F0120933E018E3008F08E5087704F
:1011200020910101B0E42B9F90011124822B809328
:101130007C0080917A00806480937A0080917A00AC
:1011400086FDFCCFE090780080917900F12CF82AA0
:10115000F0923D01E0923C0169EF85E991E00E9447
:10116000220184E090E00E941E036AE085E991E09C
:101170000E94220180913E0190913F010E9419033B
:101180008F2D90E00E941903C70199270BC1109180
:101190005701E12EF12CF0923B01E0923A01B09020
:1011A0005801CB2CD12CD0923901C092380161E08A
:1011B000812F0E942303C114D10409F448C0EFEF2A
:1011C000CE16D10409F445C0F701EF52FF4FE49168
:1011D000E330F9F048F4E130B9F0E230A1F584B53C
:1011E000806284BDB8BC39C0E730E9F0E83019F15D
:1011F000E43049F580918000806280938000D09235
:101200008B00C0928A0029C084B5806884BDB7BCB9
:1012100024C080918000806880938000D0928900F3
:10122000C09288001AC08091B00080688093B0009E
:10123000B092B30012C08091B00080628093B00081
:10124000B092B4000AC0F0E8CF16D10414F460E004
:1012500001C061E0812F0E94BE0169EF85E991E044
:101260000E94220183E090E00E941E036CE085E969
:1012700091E00E94220180913A0190913B010E94ED
:10128000190380913801909139018CC080915701E8
:10129000282F30E0309341012093400160915801A4
:1012A00070E0762F662790915901690F711D709338
:1012B00037016093360120915C0130E0322F222704
:1012C00090915D01290F311D032E000C440B550B2D
:1012D0002093320130933301409334015093350110
:1012E000211531054105510519F420E030E0A9012F
:1012F0000E945F0369EF85E991E00E94220181E08D
:1013000090E00E941E036EE085E991E00E942201B8
:101310004BC080915701282F30E03093410120933A
:1013200040010E94EE0169EF85E991E00E942201EF
:1013300081E090E00E941E0360E1E6CFE09057015B
:10134000F12CF0923101E0923001E114F10411F43A
:1013500081E010C041E0E416F10459F052E0E516D6
:10136000F10419F4009301010EC083E0E816F104C2
:1013700021F483E08093010106C094E0E916F104B2
:1013800011F41092010169EF85E991E00E942201B8
:1013900082E090E00E941E0362E185E991E00E94F4
:1013A0002201C7010E94190385E991E00E946901A9
:1013B00002C00E94C7050E948B01CCCCE5E9F1E098
:1013C0001382128288EE93E0A0E0B0E084839583DC
:1013D000A683B78386E091E09183808385EC90E0DB
:1013E0009587848784EC90E09787868780EC90E0EF
:1013F000918B808B81EC90E0938B828B82EC90E0E0
:10140000958B848B86EC90E0978B868B118E128E59
:10141000138E148E0895AA1BBB1B51E107C0AA1F8F
:10142000BB1FA617B70710F0A61BB70B881F991F85
:101430005A95A9F780959095BC01CD010895A1E238
:101440001A2EAA1BBB1BFD010DC0AA1FBB1FEE1F3E
:10145000FF1FA217B307E407F50720F0A21BB30B89
:10146000E40BF50B661F771F881F991F1A9469F705
:1014700060957095809590959B01AC01BD01CF0161
:101480000895052E97FB1EF400940E94580A57FDFC
:1014900007D00E941F0A07FC03D04EF40C94580A90
:1014A00050954095309521953F4F4F4F5F4F089590
:1014B00090958095709561957F4F8F4F9F4F0895C0
:1014C000EE0FFF1F0590F491E02D09940E94710A20
:1014D000A59F900DB49F900DA49F800D911D112488
:1014E0000895A29FB001B39FC001A39F700D811DFD
:1014F0001124911DB29F700D811D1124911D08951D
:0E15000081E090E0F8940C94850AF894FFCFF7
:10150E00FF010000000022019E00EB00C900DD007B
:02151E00690161
:00000001FF
