:100000000C9472000C949A000C949A000C949A0030
:100010000C949A000C949A000C949A000C94190277
:100020000C949A000C949A000C949A000C949A00E8
:100030000C949A000C949A000C949A000C949A00D8
:100040000C94CD020C949A000C949B020C947502B3
:100050000C949A000C949A000C949A000C949A00B8
:100060000C949A000C949A00D1079709E607970917
:10007000260897094B0897097D089709BA08970938
:100080003B0997097A0900000000240027002A0094
:1000900000000000250028002B00020000000023C3
:1000A00000260029000404040404040404020202DB
:1000B00002020203030303030301020408102040A9
:1000C0008001020408102001020408102000000032
:1000D0000800020100000304070000000000000007
:1000E00000009C0911241FBECFEFD8E0DEBFCDBFBA
:1000F00011E0A0E0B1E0EAE8F4E102C005900D9261
:10010000A231B107D9F722E0A2E1B1E001C01D920E
:10011000A033B207E1F710E0C2E7D0E004C02197B6
:10012000FE010E941E0AC137D107C9F70E942D06A1
:100130000C94430A0C940000CF92DF92EF92FF924E
:100140000F931F93CF93DF936C017A018B01C0E073
:10015000D0E0CE15DF0589F0D8016D918D01D60173
:10016000ED91FC910190F081E02DC6010995892B5C
:1001700011F47E0102C02196ECCFC701DF91CF912F
:100180001F910F91FF90EF90DF90CF900895FC01A9
:10019000918D828D981761F0828DDF01A80FB11DBE
:1001A0005D968C91928D9F5F9F73928F90E00895E2
:1001B0008FEF9FEF0895FC01918D828D981731F09C
:1001C000828DE80FF11D858D90E008958FEF9FEFF0
:1001D0000895FC01918D228D892F90E0805C9F4FC6
:1001E000821B91098F739927089583E991E00E94FA
:1001F000E90021E0892B09F420E0822F0895FC0119
:10020000848DDF01A80FB11DA35ABF4F2C91848D9F
:1002100090E001968F739927848FA689B7892C93D4
:10022000A089B1898C9180648C93938D848D98136F
:1002300006C00288F389E02D80818F7D8083089538
:10024000EF92FF920F931F93CF93DF93EC0181E026
:10025000888F9B8D8C8D981305C0E889F9898081E2
:1002600085FD24C0F62E0B8D10E00F5F1F4F0F731E
:100270001127E02E8C8DE8120CC00FB607FCFACFC8
:10028000E889F989808185FFF5CFCE010E94FF00C2
:10029000F1CF8B8DFE01E80FF11DE35AFF4FF08285
:1002A0000B8FEA89FB898081806207C0EE89FF8914
:1002B0006083E889F98980818064808381E090E0AF
:1002C000DF91CF911F910F91FF90EF900895CF9301
:1002D000DF93EC01888D8823C9F0EA89FB8980814E
:1002E00085FD05C0A889B9898C9186FD0FC00FB620
:1002F00007FCF5CF808185FFF2CFA889B9898C9161
:1003000085FFEDCFCE010E94FF00E7CFDF91CF91B7
:10031000089580E090E0892B29F00E94F50081117A
:100320000C9400000895833081F028F4813099F016
:100330008230A1F008958730A9F08830B9F0843078
:10034000D1F4809180008F7D03C0809180008F77F1
:1003500080938000089584B58F7702C084B58F7D27
:1003600084BD08958091B0008F7703C08091B00064
:100370008F7D8093B00008951F93CF93DF93282F34
:1003800030E0F901E353FF4F8491F901E754FF4F47
:10039000D491F901EB55FF4FC491CC23C9F0162F2E
:1003A00081110E949301EC2FF0E0EE0FFF1FE05748
:1003B000FF4FA591B4918FB7F894111105C09C918E
:1003C000ED2FE095E92302C0EC91ED2BEC938FBF6C
:1003D000DF91CF911F91089590910001981324C04F
:1003E000EAE9F0E0E4919FEF90930001E130B9F089
:1003F00098F0E230C9F4909170009D7F9093700066
:1004000091E09093B0009091B100987F94609093A8
:10041000B1001092B30008C010926E0005C0909118
:100420006F009D7F90936F0060E00C94BC010E9470
:100430003E0A1F920F920FB60F9211242F933F93F3
:100440004F935F936F937F938F939F93AF93BF93DC
:10045000EF93FF9380912C0190912D01A0912E019B
:10046000B0912F01892B8A2B8B2B51F180912B017D
:10047000E0912901F0912A01908189278083809160
:100480002C0190912D01A0912E01B0912F011816F1
:1004900019061A061B06C4F480912C0190912D01B7
:1004A000A0912E01B0912F010197A109B10980936C
:1004B0002C0190932D01A0932E01B0932F0104C025
:1004C000809100010E94EC01FF91EF91BF91AF91EB
:1004D0009F918F917F916F915F914F913F912F915C
:1004E0000F900FBE0F901F9018951F920F920FB68E
:1004F0000F9211242F933F934F935F936F937F93AA
:100500008F939F93AF93BF93EF93FF9383E991E012
:100510000E94FF00FF91EF91BF91AF919F918F914A
:100520007F916F915F914F913F912F910F900FBEEF
:100530000F901F9018951F920F920FB60F921124D3
:100540002F938F939F93EF93FF93E091A301F091EB
:10055000A4018081E091A901F091AA0182FD12C05D
:1005600090818091AC018F5F8F732091AD018217D4
:1005700051F0E091AC01F0E0ED56FE4F958F809385
:10058000AC0101C08081FF91EF919F918F912F91DC
:100590000F900FBE0F901F9018951F920F920FB6DD
:1005A0000F9211242F933F938F939F93AF93BF93F9
:1005B0008091170190911801A0911901B0911A0131
:1005C0003091160123E0230F2D3720F40196A11D51
:1005D000B11D05C026E8230F0296A11DB11D209371
:1005E00016018093170190931801A0931901B093FD
:1005F0001A018091120190911301A0911401B09100
:1006000015010196A11DB11D809312019093130154
:10061000A0931401B0931501BF91AF919F918F9159
:100620003F912F910F900FBE0F901F901895682F3C
:1006300083E991E00C942001682F83E991E00C9408
:100640002001CF93DF9390E0FC01E754FF4F24910A
:10065000FC01EB55FF4F8491882361F190E0880FF6
:10066000991FFC01EA57FF4FC591D491FC01E05757
:10067000FF4FA591B491611109C09FB7F89488818B
:10068000209582238883EC912E230BC0623061F485
:100690009FB7F8943881822F809583238883EC91CB
:1006A0002E2B2C939FBF06C08FB7F894E8812E2B7A
:1006B00028838FBFDF91CF9108953F924F925F9231
:1006C0006F927F928F929F92AF92BF92CF92DF9262
:1006D000EF92FF920F931F93CF93DF9300D000D040
:1006E000CDB7DEB790910001981721F09F3F09F038
:1006F00036C204C0EAE9F0E0349081C08093000182
:10070000EAE9F0E0E491EF3F09F429C2E13031F188
:10071000E23009F44BC0E11171C014BC15BC94B5B2
:10072000926094BD95B5916095BDA82FB0E0FD0194
:10073000EB55FF4FE491F0E0EE0FFF1FE057FF4F46
:10074000059114911093200100931F01FD01E754BE
:10075000FF4FE491E0931E01312C53C010928000B2
:100760001092810090918100986090938100909107
:100770008100916090938100A82FB0E0FD01EB55BE
:10078000FF4FE491F0E0EE0FFF1FE057FF4F0591A0
:10079000149110931D0100931C01FD01E754FF4FBC
:1007A000E491E0931B01332433942BC01092B000EA
:1007B0001092B1009091B00092609093B00090912F
:1007C000B10091609093B100A82FB0E0FD01EB550E
:1007D000FF4FE491F0E0EE0FFF1FE057FF4F059150
:1007E000149110932A0100932901FD01E754FF4F52
:1007F000E491E0932B0102E0302E03C03E2E37FC43
:10080000AEC129013A018B0161E00E942103480138
:10081000A12CB12C832D8D7F09F0BBC060E072E16B
:100820008AE790E0A50194010E94FF0929833A8399
:100830004B835C8369017A0121E0C21AD108E10887
:10084000F1088FEFC816D104E104F10409F008F4AF
:100850004CC060E472E48FE090E0A50194010E9436
:10086000FF0969017A01E1E0CE1AD108E108F10837
:10087000F2E03F1220C02FEFC216D104E104F104D0
:1008800009F008F46AC160E970ED83E090E0A50129
:1008900094010E94FF0969017A0181E0C81AD10818
:1008A000E108F108EFEFCE16D104E104F10409F0FC
:1008B000D0F583E067C0FFEFCF16D104E104F10467
:1008C000B1F0A8F068E478EE81E090E0A501940131
:1008D0000E94FF0969017A0181E0C81AD108E10884
:1008E000F108332009F4DFC02FC181E001C082E0AC
:1008F0003320A1F047C089819A81AB81BC812AE075
:10090000B595A795979587952A95D1F76C017D01A7
:1009100021E0C21AD108E108F10885E095B5987F79
:10092000892B85BD6FC068E478EE81E090E0A50179
:1009300094010E94FF0969017A01F1E0CF1AD10800
:10094000E108F1082FEFC216D104E104F10409F027
:1009500008F4A7C064E274EF80E090E0A501940180
:100960000E94FF0969017A01E1E0CE1AD108E1088D
:10097000F108FFEFCF16D104E104F10411F008F003
:10098000B4C085E09091B100987F892B8093B1002D
:1009900039C060E072E18AE790E0A50194010E940D
:1009A000FF0969017A0181E0C81AD108E108F1085C
:1009B000C114D104E1E0EE06F10488F068E478EEB9
:1009C00081E090E0A50194010E94FF0969017A018C
:1009D000F1E0CF1AD108E108F10893E001C091E0FD
:1009E00021E032120FC080918100887F892B809393
:1009F0008100411451046104710449F42FEF3FEF69
:100A0000A9012DC0411451046104710471F0D80191
:100A1000AA0FBB1FA30192010E94240A28EE33E013
:100A200040E050E00E94DD0903C02FEF3FEFA90135
:100A300081E03816A1F0E2E03E1619F131108FC0C6
:100A4000C7BC209325013093260140932701509382
:100A5000280180916E00826080936E0080C0D092E9
:100A60008900C09288002093210130932201409395
:100A700023015093240180916F00826080936F0066
:100A80006EC0C092B30020932C0130932D0140938F
:100A90002E0150932F01809170008260809370002E
:100AA0005EC084E06FCFFFEFCF16D104E104F10404
:100AB000D1F0C8F062E17AE780E090E0A50194010E
:100AC0000E94FF0969017A0181E0C81AD108E10892
:100AD000F108EFEFCE16D104E104F10411F008F0B3
:100AE0000ACF84E01BCF83E019CF62E17AE780E090
:100AF00090E0A50194010E94FF0969017A0181E05B
:100B0000C81AD108E108F108EFEFCE16D104E104CC
:100B1000F104C1F0B8F089819A81AB81BC814AE0CF
:100B2000B595A795979587954A95D1F76C017D0165
:100B300021E0C21AD108E108F108332009F4EDCE12
:100B400087E020CF86E0D4CEFFEFCF16D104E104BA
:100B5000F10409F050F684E0CBCE82E013CF0F9081
:100B60000F900F900F90DF91CF911F910F91FF90F9
:100B7000EF90DF90CF90BF90AF909F908F907F903D
:100B80006F905F904F903F9008956FEE83E991E0F2
:100B90000E9420016FEE83E991E00E9420016FEE38
:100BA00083E991E00E94200183E991E00C946701C0
:100BB000CF92DF92EF92FF920F931F93CF93DF9329
:100BC00000D000D0CDB7DEB79FB7F894C090170122
:100BD000D0901801E0901901F0901A019FBF082FE2
:100BE00010E083E991E049835A836B837C830E9400
:100BF000E90049815A816B817C8180179107A4F4B7
:100C00002FB7F8948091170190911801A0911901C4
:100C1000B0911A012FBF8C199D09AE09BF09841725
:100C20009507A607B707E8F283E991E00E94E9007B
:100C30008017910724F40E94C50580E001C081E07F
:100C40000F900F900F900F90DF91CF911F910F9108
:100C5000FF90EF90DF90CF900895789484B58260F4
:100C600084BD84B5816084BD85B5826085BD85B550
:100C7000816085BD80916E00816080936E001092CE
:100C80008100809181008260809381008091810049
:100C900081608093810080918000816080938000DA
:100CA0008091B10084608093B1008091B000816038
:100CB0008093B00080917A00846080937A00809164
:100CC0007A00826080937A0080917A0081608093BC
:100CD0007A0080917A00806880937A001092C10037
:100CE000E091A301F091A40182E08083E0919F0153
:100CF000F091A0011082E091A101F091A20180E1A8
:100D000080831092AB01E091A701F091A80186E0E9
:100D10008083E091A501F091A601808180618083AC
:100D2000E091A501F091A601808188608083E09127
:100D3000A501F091A601808180688083E091A501E2
:100D4000F091A60180818F7D8083CFEFD0E0E3E535
:100D5000F1E0119241E0E339F407D9F783E991E03A
:100D60000E94E9000497D0F383E991E00E94C70054
:100D7000809352018F3F09F0DCC283E991E00E9429
:100D8000C700809352018E3F09F0D3C283E991E0FE
:100D90000E94C700809352018D3F09F0CAC283E9C7
:100DA00091E00E94C700809352018C3F09F0C1C2BC
:100DB0008CEF90E00E941C038DEF90E00E941C03DA
:100DC0008EEF90E00E941C038FEF90E00E941C03C6
:100DD00083E991E00E9467014AEF50E060E070E033
:100DE00083E00E94D805882309F4A3C283E991E037
:100DF0000E94C7008B3F910509F09BC283E991E0F7
:100E00000E94C700182F8093510183E991E00E944E
:100E1000C7007C01082F80935001682F83E991E07F
:100E20000E942001612F83E991E00E9420016BEF75
:100E300083E991E00E94200183E991E00E9467012B
:100E400048EE53E060E070E084E08E0D0E94D8052B
:100E5000882309F46EC2F3E5CF2EF1E0DF2EFF24E4
:100E60005701B3E0AB0EB11CC60183559140A816E3
:100E7000B90644F083E991E00E94C700D6018D9342
:100E80006D01F2CFE2E0EE0EF11CF701ED5AFE4FDC
:100E9000C080C0924F01F501ED5AFE4FD080D09234
:100EA0004E0148EE53E060E070E081E00E94D8051A
:100EB000882309F43EC283E991E00E94C7008A3F7B
:100EC000910509F036C2E3E5AE2EE1E0BE2EE0E08A
:100ED000F0E020E030E0C501835591408E159F057C
:100EE00090F4D5018D915D01A901480F511DCA01F2
:100EF000BE010E94C9099C018E0F9F1FBE010E9466
:100F0000C909FC01E8CFFE2FEE272E2B3F2B309393
:100F10004D0120934C01F901FF27F0934B01E09321
:100F20004A01232F33273093490120934801C901F7
:100F30008E0F9F1FBE010E94C9099E01281B390BFD
:100F40003093470120934601C9018E0F9F1FBE01B8
:100F50000E94C909AE01481B590B509345014093AB
:100F600044018C2D90E02817390709F0E0C18D2D40
:100F700090E04817590709F0DAC18091530118131E
:100F8000D6C1809154010813D2C1812F90E0FC0199
:100F90003197EF30F10508F0CAC1EC5CFF4F0C94BB
:100FA0001E0A69EF83E991E00E94200183E090E04E
:100FB0000E941C0362E083E991E00E94200181E02D
:100FC00090E00E94170380E090E052C1E09055014C
:100FD000F12CF0924301E0924201F701E353FF4FFD
:100FE0008491F701E754FF4F0491F701EB55FF4F50
:100FF0001491112391F081110E949301E12FF0E0EF
:10100000EE0FFF1FE556FF4FA591B491EC91E02341
:1010100001E010E021F400E002C000E010E00093E5
:1010200040011093410169EF83E991E00E942001A2
:1010300083E090E00E941C0364E083E991E00E9459
:101040002001C7010E941703C80112C180915501F8
:10105000E82EF12CF0923F01E0923E010091560102
:1010600010E010934101009340010115110511F4A6
:1010700060E004C00130110519F461E00E94BC0178
:1010800069EF83E991E00E94200183E090E00E94F3
:101090001C0366E029C080915501E82EF12CF092E6
:1010A0003F01E0923E010091560110E01093410192
:1010B000009340010115110511F460E009C00130F1
:1010C000110511F462E004C00230110519F461E069
:1010D0000E94210369EF83E991E00E94200183E0EF
:1010E00090E00E941C0368E083E991E00E942001E7
:1010F000C7010E941703C801BBC080915501282F6A
:1011000030E030933D0120933C018E3008F08E504A
:101110008770806480937C0080917A0080648093E3
:101120007A0080917A0086FDFCCF00917800809152
:10113000790010E0182B10933B0100933A0169EFFE
:1011400083E991E00E94200184E090E00E941C036A
:101150006AE083E991E00E94200180913C01909136
:101160003D010E941703812F90E00E941703C801E0
:1011700099277EC0F09055010F2D10E01093390192
:1011800000933801E0905601CE2CD12CD09237013B
:10119000C092360161E08F2D0E942103C114D10459
:1011A00009F448C05FEFC516D10409F445C0F80141
:1011B000E353FF4FE491E330F9F048F4E130B9F044
:1011C000E230A1F584B5806284BDE8BC39C0E73067
:1011D000E9F0E83019F1E43049F58091800080624F
:1011E00080938000D0928B00C0928A0029C084B581
:1011F000806884BDE7BC24C08091800080688093B3
:101200008000D0928900C09288001AC08091B000FE
:1012100080688093B000E092B30012C08091B0006B
:1012200080628093B000E092B4000AC080E8C816E3
:10123000D10414F460E001C061E08F2D0E94BC0174
:1012400069EF83E991E00E94200183E090E00E9431
:101250001C036CE083E991E00E9420018091380139
:10126000909139010E9417038091360190913701C6
:101270000E94170357C080915501282F30E030930A
:101280003F0120933E016091560170E0762F662762
:1012900090915701690F711D70933501609334016E
:1012A00020915A0130E0322F222790915B01290FC3
:1012B000311D032E000C440B550B2093300130934D
:1012C000310140933201509333012115310541051D
:1012D000510519F420E030E0A9010E945D0369EF97
:1012E00083E991E00E94200181E090E00E941C03CC
:1012F0006EE014C080915501282F30E030933F01FB
:1013000020933E010E94EC0169EF83E991E00E9485
:10131000200181E090E00E941C0360E183E991E0FC
:101320000E94200183E991E00E94670102C00E94AF
:10133000C5050E9489010BCDE3E9F1E01382128219
:1013400088EE93E0A0E0B0E084839583A683B78322
:1013500085E091E09183808385EC90E09587848798
:1013600084EC90E09787868780EC90E0918B808B6F
:1013700081EC90E0938B828B82EC90E0958B848B58
:1013800086EC90E0978B868B118E128E138E148EC6
:101390000895AA1BBB1B51E107C0AA1FBB1FA617BC
:1013A000B70710F0A61BB70B881F991F5A95A9F70E
:1013B00080959095BC01CD010895A1E21A2EAA1B3B
:1013C000BB1BFD010DC0AA1FBB1FEE1FFF1FA217F5
:1013D000B307E407F50720F0A21BB30BE40BF50BF2
:1013E000661F771F881F991F1A9469F7609570957B
:1013F000809590959B01AC01BD01CF010895052E0C
:1014000097FB1EF400940E94160A57FD07D00E9415
:10141000DD0907FC03D04EF40C94160A5095409554
:10142000309521953F4F4F4F5F4F08959095809590
:10143000709561957F4F8F4F9F4F0895EE0FFF1F5F
:101440000590F491E02D09940E942F0AA59F900D1C
:10145000B49F900DA49F800D911D11240895A29F0B
:10146000B001B39FC001A39F700D811D1124911D78
:10147000B29F700D811D1124911D089581E090E0AF
:0A148000F8940C94430AF894FFCF8F
:10148A00FF0000000020019C00E900C700DB0067A4
:02149A0001004F
:00000001FF
