:100000000C9410010C9438010C9438010C943801B4
:100010000C9438010C9438010C9438010C9438017C
:100020000C9438010C9438010C94CF020C944F03BB
:100030000C9438010C9438010C9438010C9438015C
:100040000C9438010C9438010C9438010C9438014C
:100050000C9438010C9438010C9438010C94B706B8
:100060000C9438010C9438010C9438010C9438012C
:100070000C9438010C9438010C9438010C9438011C
:100080000C948C050C9438010C9438010C943801B4
:100090000C9438010C9438010C9438010C943801FC
:1000A0000C9438010C9438010C94380177077A07C6
:1000B00069076D0773079B079B079B077E078207EE
:1000C00086078C0790079B079607340D6F0F4A0D24
:1000D0006F0F800D6F0FB80D6F0FE30D6F0F380EA0
:1000E0006F0FF30E6F0F330F690E6E0E730E7D0ED2
:1000F000870ED10ED10ED10E910E9B0EA50EAF0E16
:10010000BC0ED10EC40E00000000240027002A00FF
:100110002D00300000000000250028002B002E00DC
:100120003100080B00020202010009040000010274
:10013000020000052400100105240101010424022D
:10014000060524060001070581031000400904018B
:1001500000020A00000007050202400000070583B4
:10016000024000000403090441726475696E6F2047
:100170004C4C430041726475696E6F204D69637227
:100180006F0012010002000000404123378000018F
:100190000102030112010002EF02014041233780F6
:1001A00000010102030103070605040100080A0B10
:1001B0000C0D09000000002300260029002C002F50
:1001C00000040404040403040502020202040302FE
:1001D00002020206060606060604040202020404DF
:1001E0000408020110408040102040804080080236
:1001F00004018040201002011080102040402000A7
:1002000000000200090F0000030401000C000000C0
:1002100000000000000000000000000000004A078D
:1002200011241FBECFEFDAE0DEBFCDBF11E0A0E0AA
:10023000B1E0EEEDFFE102C005900D92A432B107EE
:10024000D9F722E0A4E2B1E001C01D92A831B207C3
:10025000E1F711E0C0E1D1E004C02197FE010E9466
:10026000CD0FCF30D107C9F70E94320B0C94ED0FA0
:100270000C940000409151015091520120914F0186
:100280003091500142175307B4F49091E8009570F3
:10029000E1F39091E80092FD19C08093F100809104
:1002A00051019091520101968F739927892B19F46E
:1002B0008EEF8093E8008091510190915201019658
:1002C000909352018093510181E0089580E0089558
:1002D000CF92DF92EF92FF920F931F93CF93DF9312
:1002E0001F92CDB7DEB7182F062FE42E862F880F6A
:1002F0008E5F99830E943A0183E00E943A01F12EB9
:10030000C12E9981D92E8C2D8F19801798F4F60162
:10031000E7FE02C0849101C080810E943A01182F3B
:1003200080E00E943A018123FFEFCF1ADF0A81119A
:10033000EACF01C081E00F90DF91CF911F910F9123
:10034000FF90EF90DF90CF900895DF92EF92FF92B1
:100350000F931F93CF93DF93D82E8A017B01E40E76
:10036000F51EEB01CE15DF0571F0D7FE03C0FE01CF
:10037000849101C088810E943A0121968111F2CFB7
:100380008FEF9FEF01C0C801DF91CF911F910F91B7
:10039000FF90EF90DF900895615030F02091F100D0
:1003A000FC0120830196F8CF289A84E680930A0204
:1003B0000895CF92DF92EF92FF920F931F93CF9306
:1003C000DF936C017A018B01C0E0D0E0CE15DF0530
:1003D00089F0D8016D918D01D601ED91FC910190CC
:1003E000F081E02DC6010995892B11F47E0102C030
:1003F0002196ECCFC701DF91CF911F910F91FF9014
:10040000EF90DF90CF900895CF93DF931F92CDB7F9
:10041000DEB76983DC01ED91FC910280F381E02D70
:1004200041E050E0BE016F5F7F4F09950F90DF9173
:10043000CF910895FC018485958597FD0BC09FB7EA
:10044000F89482E08093E9008091F2009FBF90E0F1
:10045000019608959FB7F89482E08093E900809117
:10046000F2009FBF90E008953FB7F89480912E016D
:1004700090912F01A0913001B091310126B5A89B38
:1004800005C02F3F19F00196A11DB11D3FBFBA2F26
:10049000A92F982F8827820F911DA11DB11DBC0186
:1004A000CD0142E0660F771F881F991F4A95D1F74B
:1004B00008950C9401070F931F93CF93DF931F921E
:1004C000CDB7DEB782E0898342E450E062E271E0BA
:1004D00080E80E94A5010E943607DC0112960D916A
:1004E0001C9113970115110569F0D801ED91FC914C
:1004F0000280F381E02DBE016F5F7F4FC801099537
:1005000097FF07C089810F90DF91CF911F910F91C5
:100510000895F80100851185E5CFCF93DF931F92F1
:10052000CDB7DEB7FC018485958597FD05C02FEF1B
:100530003FEF358724870BC0CE0101960E940C0740
:10054000019719F4898190E002C08FEF9FEF0F901F
:10055000DF91CF9108950F931F93CF93DF931F9255
:10056000CDB7DEB78C01FC018485958597FF0EC061
:10057000CE0101960E940C07019719F4298130E001
:1005800002C02FEF3FEFF80135872487F8018485FB
:1005900095850F90DF91CF911F910F9108951F9234
:1005A0000F920FB60F9211242F933F934F935F93A7
:1005B0006F937F938F939F93AF93BF93CF93EF935B
:1005C000FF93C091E1008091E100837F8093E1007F
:1005D000C3FF0FC01092E90081E08093EB001092FE
:1005E000EC0082E38093ED0010920B0288E0809390
:1005F000F000C2FF18C00E940107809153018823B8
:1006000039F080915301815080935301882389F1FF
:1006100080910A02882339F080910A0281508093E8
:100620000A02882341F1C4FF10C08091E2008E7E4F
:1006300081608093E2008091E1008F7E8093E100F1
:10064000809155018E7E806111C0C0FF16C08091DF
:10065000E2008E7E80618093E2008091E1008E7ED8
:100660008093E100809155018E7E816080935501D9
:1006700004C05D98CDCF2898D6CFFF91EF91CF9150
:10068000BF91AF919F918F917F916F915F914F91AA
:100690003F912F910F900FBE0F901F9018951F92B2
:1006A0000F920FB60F921124CF92DF92EF92FF922A
:1006B0000F931F932F933F934F935F936F937F936A
:1006C0008F939F93AF93BF93EF93FF93CF93DF935A
:1006D000CDB7DEB76C97DEBFCDBF1092E900809139
:1006E000E80083FFFAC168E0CE0145960E94CC0184
:1006F00082EF8093E8008D8987FF05C09091E80024
:1007000090FFFCCF03C09EEF9093E800982F907667
:1007100009F0C6C09E892F89188D91110CC08038B0
:1007200029F4809156018093F10002C01092F100EB
:100730001092F10047C1422F50E0512B913051F4FB
:10074000811140C14130510509F03CC180915601F1
:100750008D7F0BC0933061F4811134C1413051055C
:1007600009F030C1809156018260809356012AC100
:10077000953041F48091E80080FFFCCF2068209301
:10078000E30020C1963009F05FC0EB8CFC8C109226
:10079000E9001092520110925101123091F510921D
:1007A000500110924F010E945B0299E0BE016F5F01
:1007B0007F4FDB01E92F1D92EA95E9F799831A83B0
:1007C00091E09E8390EA98879AEF99872091510152
:1007D00030915201275F3F4F3C832B838D831092D2
:1007E000E9001092520110925101F0925001E092F2
:1007F0004F0149E050E080E00E94A5010E945B02A9
:10080000E1C0F0925001E0924F010E943607DC01F6
:100810001296ED90FC901397E114F10409F4C0C016
:10082000D701ED91FC910480F581E02DBE016B5E56
:100830007F4FC7010995009719F00CF0C3C0C6C0DF
:10084000F701E084F184E8CF973009F4BFC0983015
:1008500021F481E08093F100B5C0993009F0B2C075
:10086000837009F0B3C0EEE1F1E081E021E036E30E
:100870009081992361F08093E9002093EB0091919E
:100880009093EC003093ED008F5F873089F78EE70F
:100890008093EA001092EA008F8980930B0292C045
:1008A0008B8D9C8D1092E900109252011092510193
:1008B0009093500180934F01898D811156C08E898C
:1008C0009D89913A59F4813209F080C047E050E0A7
:1008D00064E071E080E00E94A50174C0913209F0EB
:1008E00075C0833289F4888D90E0982F88272F89EE
:1008F000822BA0E0B0E08093000190930101A093CF
:100900000201B09303015EC0803269F48091E80077
:1009100082FFFCCF67E084E091E00E94CC018BEF86
:100920008093E80006C0823209F04CC08F89809322
:100930000B0180915401882319F0EEEFFAE002C018
:10094000E0E0F8E08091040190910501A09106019A
:10095000B0910701803B9440A105B10509F088C022
:1009600080910B0180FFA0C083C00E943607DC018C
:1009700012960D911C9113970115110539F1D801AB
:10098000ED91FC910190F081E02DBE016B5E7F4FF7
:10099000C8010995811116C0F80100851185ECCFB9
:1009A0001130C1F0133091F48F89882309F455C0B8
:1009B0008230E9F440E86DE084E791E00E9468014C
:1009C000882321F08EEF8093E80087C081E2809336
:1009D000EB0083C08B8D9C8D089711F410934E0112
:1009E00080914E01811136C062E871E038C08130DB
:1009F00029F440E86BE088E691E0E0CF833031F7FE
:100A00000E943607DC011296ED90FC9013978E0140
:100A10000F5F1F4F6801E114F10479F0D701ED91E8
:100A2000FC910680F781E02DB801C7010995080FF8
:100A3000111DF701E084F184EECFD8011C92F6017C
:100A400001900020E9F73197BF016C197D0940E062
:100A5000C601B4CF64E971E002C064E671E06115DB
:100A6000710509F4B3CFFB01449150E080E833CF26
:100A70000FB6F894A895809160008861809360001B
:100A8000109260000FBEA895EE3F2AE0F20739F001
:100A90008091FE0A9091FF0A9183808393CF1092F8
:100AA000FF0A1092FE0A8ECFEE3F8AE0F80731F07F
:100AB000808191819093FF0A8093FE0A87E797E7F0
:100AC000918380839BE088E10FB6F894A89580938A
:100AD00060000FBE9093600075CF6C960FB6F894CF
:100AE000DEBF0FBECDBFDF91CF91FF91EF91BF91E0
:100AF000AF919F918F917F916F915F914F913F91B6
:100B00002F911F910F91FF90EF90DF90CF900F905A
:100B10000FBE0F901F9018951F920F920FB60F9255
:100B200011242F933F938F939F93AF93BF93EF9392
:100B3000FF9380914A0190914B01A0914C01B0919B
:100B40004D01892B8A2B8B2B51F180914901E0912A
:100B50004701F091480190818927808380914A0163
:100B600090914B01A0914C01B0914D0118161906BE
:100B70001A061B064CF580914A0190914B01A091F9
:100B80004C01B0914D010197A109B10980934A012F
:100B900090934B01A0934C01B0934D0115C08091EF
:100BA00071008D7F8093710090914901E091470120
:100BB000F09148018081282F30E0892F90E08095C6
:100BC0009095822393238083FF91EF91BF91AF9102
:100BD0009F918F913F912F910F900FBE0F901F907B
:100BE00018958F929F92AF92BF92CF92DF92EF9221
:100BF000FF926B017C010E9434024B015C01C11425
:100C0000D104E104F104F1F00E943402DC01CB01D3
:100C100088199909AA09BB09883E9340A105B10525
:100C200070F321E0C21AD108E108F10888EE880EBD
:100C300083E0981EA11CB11CC114D104E104F1048D
:100C400019F7DDCFFF90EF90DF90CF90BF90AF907E
:100C50009F908F9008958F929F92AF92BF92CF9264
:100C6000DF92EF92FF920F931F93CF93DF935C017C
:100C70006B018A0180910B01882309F45EC0809189
:100C80000B02882309F459C08091550180FF05C0EB
:100C90008091E00082608093E000E8018AEFF82E06
:100CA00093E0E92E2FE3822E3AE3932E209709F466
:100CB0003DC08FB7F894E092E9009091E80095FF6D
:100CC00006C09091F200282D291B922F01C090E0C0
:100CD0008FBF91110AC0FA94FF2079F161E070E0B2
:100CE00080E090E00E94F105E1CF292F30E0C217AB
:100CF000D3070CF49C2F8FB7F894E092E900209171
:100D0000E80025FF11C0292F30E0C21BD30BF601EC
:100D1000915020F041914093F100FACFC20ED31EC2
:100D20009091E80095FF13C08FBFC0CF5D9A84E615
:100D3000809353011016110644F081E090E0F50114
:100D40009383828380E090E005C0C80103C0909245
:100D5000E800EACFDF91CF911F910F91FF90EF90C4
:100D6000DF90CF90BF90AF909F908F9008951F928B
:100D70000F920FB60F9211242F933F938F939F934F
:100D8000AF93BF9380912A0190912B01A0912C01E8
:100D9000B0912D013091290123E0230F2D3720F44C
:100DA0000196A11DB11D05C026E8230F0296A11DC5
:100DB000B11D2093290180932A0190932B01A093C8
:100DC0002C01B0932D0180912E0190912F01A091C3
:100DD0003001B09131010196A11DB11D80932E010A
:100DE00090932F01A0933001B0933101BF91AF9147
:100DF0009F918F913F912F910F900FBE0F901F9059
:100E0000189583E08093E9008091F200882319F01F
:100E10008AE38093E8000895FC0180910B02811120
:100E200003C08FEF9FEF08959FB7F89482E08093FF
:100E3000E9002091F20030E01216130614F421E0CC
:100E400030E02115310559F0289A84E680930A0292
:100E50008091F10080838091F200882319F09FBF78
:100E6000C90108958BE68093E800F9CF80911002C4
:100E700081110DC082E080930C0284E080930D020A
:100E800010920F0210920E0281E0809310028CE00B
:100E900092E00895E7E5F1E01382128288EE93E094
:100EA000A0E0B0E084839583A683B78381E191E0DD
:100EB000918380838FEF9FEF95878487089590E0DB
:100EC000FC013197EF30F105B0F5EA5AFF4F0C9471
:100ED000CD0F809180008F7703C0809180008F7D3F
:100EE00080938000089580918000877FF9CF84B53A
:100EF0008F7702C084B58F7D84BD08958091900066
:100F00008F7707C0809190008F7D03C08091900003
:100F1000877F8093900008958091C0008F7703C0F1
:100F20008091C0008F7D8093C00008958091C200A1
:100F3000877F8093C20008951F93CF93DF93282F5C
:100F400030E0F901E150FE4F8491F901E052FE4F8B
:100F5000D491F901EF53FE4FC491CC23C9F0162F61
:100F600081110E945F07EC2FF0E0EE0FFF1FEC5E97
:100F7000FE4FA591B4918FB7F894111105C09C91C3
:100F8000ED2FE095E92302C0EC91ED2BEC938FBFA0
:100F9000DF91CF911F910895CF93DF9390E0FC01F3
:100FA000E052FE4F2491FC01EF53FE4F84918823C1
:100FB00061F190E0880F991FFC01EA5FFE4FC59137
:100FC000D491FC01EC5EFE4FA591B491611109C072
:100FD0009FB7F8948881209582238883EC912E23F3
:100FE0000BC0623061F49FB7F8943881822F8095EE
:100FF00083238883EC912E2B2C939FBF06C08FB741
:10100000F894E8812E2B28838FBFDF91CF9108952C
:101010003F924F925F926F927F928F929F92AF9288
:10102000BF92CF92DF92EF92FF920F931F93CF93D5
:10103000DF9300D000D0CDB7DEB729013A019091FF
:101040000C01981721F09F3F09F090C204C0E6EA16
:10105000F1E03490AEC080930C01E6EAF1E0E49157
:10106000EF3F09F483C2E13009F452C01CF5E111ED
:101070009FC014BC15BC94B5926094BD95B59160A9
:1010800095BD282F30E0F901EF53FE4FE491F0E0D9
:10109000EE0FFF1FEC5EFE4F4591549150933A01C5
:1010A00040933901F901E052FE4FE491E093380199
:1010B000312C81C0E33009F453C0E43009F078C02A
:1010C0001092C0001092C1009091C100986090935E
:1010D000C1009091C10091609093C100482F50E0F1
:1010E000FA01EF53FE4FE491F0E0EE0FFF1FEC5ECC
:1010F000FE4F259134913093340120933301FA014E
:10110000E052FE4FE491E0933201B4E03B2E53C035
:1011100010928000109281009091810098609093CD
:10112000810090918100916090938100282F30E0A0
:10113000F901EF53FE4FE491F0E0EE0FFF1FEC5E7C
:10114000FE4F459154915093370140933601F90178
:10115000E052FE4FE491E0933501332433942BC0E9
:10116000109290001092910090919100986090934D
:10117000910090919100916090939100282F30E020
:10118000F901EF53FE4FE491F0E0EE0FFF1FEC5E2C
:10119000FE4F459154915093480140934701F90106
:1011A000E052FE4FE491E093490103E0302E03C08A
:1011B0003E2E37FCDBC18B0161E00E94CC07480169
:1011C000A12CB12C832D8D7F09F0CCC060E072E1A1
:1011D0008AE790E0A50194010E94AE0F29833A832B
:1011E0004B835C8369017A0121E0C21AD108E108CE
:1011F000F1088FEFC816D104E104F10409F008F4F6
:101200004BC060E472E48FE090E0A50194010E947D
:10121000AE0F69017A0191E0C91AD108E108F1081D
:10122000E2E03E121FC0FFEFCF16D104E104F1044B
:1012300009F008F4F4C060E970ED83E090E0A501E6
:1012400094010E94AE0F69017A0181E0C81AD108A9
:10125000E108F1089FEFC916D104E104F10409F097
:1012600010F5DDC0EFEFCE16D104E104F104B1F0CA
:10127000A8F068E478EE81E090E0A50194010E9476
:10128000AE0F69017A01F1E0CF1AD108E108F10847
:10129000332009F437C12CC181E001C082E0332042
:1012A00009F45BC0BCC068E478EE81E090E0A50181
:1012B00094010E94AE0F69017A01F1E0CF1AD108C2
:1012C000E108F1082FEFC216D104E104F10409F09E
:1012D00008F4A5C064E274EF80E090E0A5019401F9
:1012E0000E94AE0F69017A0181E0C81AD108E108B5
:1012F000F1089FEFC916D104E104F10409F008F4E4
:101300008EC062E17AE780E090E0A50194010E943E
:10131000AE0F69017A0181E0C81AD108E108F1082D
:101320009FEFC916D104E104F10409F008F4DEC00E
:1013300089819A81AB81BC814AE0B595A795979543
:1013400087954A95D1F76C017D01E1E0CE1AD1086D
:10135000E108F108311063C085E095B5987F892BCD
:1013600085BD5DC060E072E18AE790E0A50194016F
:101370000E94AE0F69017A01F1E0CF1AD108E108AD
:10138000F108C114D10421E0E206F10488F068E418
:1013900078EE81E090E0A50194010E94AE0F690112
:1013A0007A0181E0C81AD108E108F10883E001C0A0
:1013B00081E091E039120FC090918100987F892BD4
:1013C00080938100411451046104710469F52FEF89
:1013D0003FEFA90157C0E3E03E120FC0909191008A
:1013E000987F892B8093910041145104610471040A
:1013F000D9F42FEF3FEFA90157C0F4E03F120FC01F
:101400009091C100987F892B8093C10041145104B1
:101410006104710449F42FEF3FEFA90157C0411453
:1014200051046104710471F0D801AA0FBB1FA3011C
:1014300092010E94D30F28EE33E040E050E00E947A
:101440008C0F03C02FEF3FEFA90181E03816D1F0D8
:1014500083158CF031108AC0C7BC209343013093B0
:101460004401409345015093460180916E00826093
:1014700080936E007BC093E03916B1F0E4E03E1635
:1014800029F174C0D0928900C092880020933F0156
:1014900030934001409341015093420180916F008D
:1014A000826080936F0062C0D0929900C0929800D1
:1014B00020934A0130934B0140934C0150934D01CE
:1014C0008091710082608093710050C0C092CF0003
:1014D00020933B0130933C0140933D0150933E01EA
:1014E0008091720080648093720040C086E0D7CE05
:1014F000EFEFCE16D104E104F10411F008F001CFB2
:1015000084E0CDCE8FEFC816D104E104F104C9F018
:10151000C0F062E17AE780E090E0A50194010E94CA
:10152000AE0F69017A01F1E0CF1AD108E108F108A4
:101530002FEFC216D104E104F10409F020F484E095
:101540000CCF83E00ACF89819A81AB81BC812AE0EC
:10155000B595A795979587952A95D1F76C017D014B
:10156000E1E0CE1AD108E108F108F6CE0F900F9015
:101570000F900F90DF91CF911F910F91FF90EF90FF
:10158000DF90CF90BF90AF909F908F907F906F90A3
:101590005F904F903F9008956FEE87E591E00E9435
:1015A00004026FEE87E591E00E9404026FEE87E58A
:1015B00091E00E9404020C940107CF92DF92EF9217
:1015C000FF920F931F93CF93DF9300D000D0CDB73E
:1015D000DEB79FB7F894C0902A01D0902B01E0901D
:1015E0002C01F0902D019FBF082F10E087E591E0BE
:1015F00049835A836B837C830E941A0249815A81F2
:101600006B817C8180179107A4F42FB7F8948091A7
:101610002A0190912B01A0912C01B0912D012FBF97
:101620008C199D09AE09BF0984179507A607B7074E
:10163000E8F287E591E00E941A028017910724F4EE
:101640000E94CC0A80E001C081E00F900F900F90C3
:101650000F90DF91CF911F910F91FF90EF90DF904E
:10166000CF900895CF93DF9300D0CDB7DEB77894B5
:1016700084B5826084BD84B5816084BD85B5826097
:1016800085BD85B5816085BD80916E008160809348
:101690006E001092810080918100826080938100B1
:1016A00080918100816080938100809180008160C1
:1016B000809380008091910082608093910080915E
:1016C000910081608093910080919000816080936F
:1016D00090008091C10084608093C1008091C1001E
:1016E00082608093C1008091C10081608093C100BD
:1016F0008091C30081608093C3008091C0008260AC
:101700008093C0008091C20081608093C20080916C
:101710007A00846080937A0080917A00826080935E
:101720007A0080917A00816080937A0080917A00BB
:10173000806880937A0010920B02109256011092EA
:1017400055018091D70081608093D70080EA809313
:10175000D80089B5806189BD89B5826089BD09B429
:1017600000FEFDCF61E070E080E090E00E94F105B6
:101770008091D8008F7C80618093D8008091E000B8
:10178000807F8093E0008091E1008E7E8093E10075
:101790008DE08093E200559A209A5D982898EEEFAC
:1017A000FFE7859194918B3F9C4D19F481E08093E4
:1017B00054018FEF9FEF9093640180936301F09049
:1017C0000B016AE070E080E090E00E94F105FF20EC
:1017D000B1F322E0222E22E0322E33E0E32EF12C70
:1017E00003EE402E01E0502E84EC682E81E0782E2E
:1017F00090E0C92E90E0D92EEAECF1E0119262E07F
:10180000EA30F607D9F787E591E00E941A020497BB
:10181000D0F387E591E00E948D028093C9018F3F4C
:1018200009F05FC387E591E00E948D028093C901B2
:101830008E3F09F056C387E591E00E948D028093A8
:10184000C9018D3F09F04DC387E591E00E948D02EB
:101850008093C9018C3F09F044C36CEF87E591E0A8
:101860000E9404026DEF87E591E00E9404026EEF92
:1018700087E591E00E9404026FEF87E591E00E9406
:1018800004020E9401074AEF50E060E070E083E04C
:101890000E94DD0A882309F424C387E591E00E94B1
:1018A0008D028B3F910509F01CC387E591E00E94F2
:1018B0008D028093C80187E591E00E948D0280939C
:1018C000C701682F87E591E00E9404026091C8017A
:1018D00087E591E00E9404026BEF87E591E00E94AA
:1018E00004020E9401078091C70148EE53E060E0C6
:1018F00070E08C5F0E94DD0A882309F4F2C21AECC2
:10190000A12E11E0B12E8091C70190E09C012D5FC6
:101910003F4FA5014A5C51402417350744F087E545
:1019200091E00E948D02D5018D935D01ECCFFC0109
:10193000E653FE4F82818093C601F901E653FE4FC4
:1019400080818093C50148EE53E060E070E081E063
:101950000E94DD0A882309F4C4C287E591E00E9451
:101960008D028A3F910509F0BCC24091C701A42EA7
:10197000B12CB2E0AB0EB11CBAEC8B2EB1E09B2EB9
:1019800020E030E0E0E0F0E0C4018A5C91408A159C
:101990009B05A0F4D4018D914D01BF01680F711D0D
:1019A000CB016FEF70E00E94780FFC01820F931F54
:1019B0006FEF70E00E94780F9C01E6CF322F222754
:1019C000E22BF32BF093C401E093C3015F01BB242E
:1019D000B092C201A092C101EF2FFF27F093C00186
:1019E000E093BF01CF018A0D9B1D6FEF70E00E9455
:1019F000780F2FEF30E0281B390B3093BE01209376
:101A0000BD01C9018A0D9B1D6FEF70E00E94780F28
:101A10006FEF70E0681B790B7093BC016093BB01A2
:101A20008091C60190E02817390709F058C28091CB
:101A3000C50190E06817790709F051C2E091C8012B
:101A40008091CA01E8134BC28091CB01481347C271
:101A50008E2F90E0FC013197EF30F10508F03FC286
:101A6000EB59FF4F0C94CD0F69EF87E591E00E9491
:101A7000040263E087E591E00E94040262E087E5EA
:101A800091E00E94040261E087E591E00E94040277
:101A900060E067C0F092BA01E092B901F10184916F
:101AA000F201B490F301A490AA2091F081110E9458
:101AB0005F07EA2DF0E0EE0FFF1FED54FE4FA591FA
:101AC000B4918C91B82291E080E021F490E002C0C2
:101AD00090E080E09093B7018093B80169EF87E5CB
:101AE00091E00E94040263E087E591E00E94040215
:101AF00064E087E591E00E9404026091B9012BC087
:101B00008091CC01282F30E03093B6012093B501AD
:101B10002091CD0130E03093B8012093B701211519
:101B2000310511F460E004C02130310519F461E0A1
:101B30000E949C0769EF87E591E00E94040263E040
:101B400087E591E00E94040266E087E591E00E944B
:101B500004026091B50187E591E00E940402609162
:101B6000B70187E591E00E9404020E940107B9C114
:101B70008091CC01282F30E03093B6012093B5013D
:101B80002091CD0130E03093B8012093B7012115A9
:101B9000310511F460E009C02130310511F462E033
:101BA00004C02230310519F461E00E94CC0769EFCE
:101BB00087E591E00E94040263E087E591E00E94DE
:101BC000040268E0C2CFE091CC018E2F90E09093A8
:101BD000B4018093B301E23108F0E251F0E0E9553D
:101BE000FE4FE49120917B00E3FB002700F910E019
:101BF000C80155E0880F991F5A95E1F7922F9F7DF4
:101C0000892B80937B00E770E064E0937C008091F7
:101C10007A00806480937A0080917A0086FDFCCF00
:101C2000809178002091790090E0922B9093B201FE
:101C30008093B10169EF87E591E00E94040264E0BE
:101C400087E591E00E9404026AE087E591E00E9446
:101C500004026091B30187E591E00E940402609163
:101C6000B20187E591E00E9404026091B10179CF51
:101C70009091CC01A92EB12CB092B001A092AF01ED
:101C80002091CD01822E912C9092AE018092AD01D7
:101C900061E0892F2A8399830E94CC072A81998148
:101CA0008114910409F481C0FFEF8F16910409F4A7
:101CB0007EC0F501E150FE4FE4914E2F50E0FA0155
:101CC0003197EF30F10508F06CC0EC58FF4F0C94E1
:101CD000CD0F84B5806884BD27BD6DC084B580629A
:101CE00084BD28BD68C0809180008068809380009A
:101CF00090928900809288005EC08091800080620E
:101D00008093800090928B0080928A0054C08091D2
:101D1000800088608093800090928D0080928C007B
:101D20004AC08091900080688093900090929900C2
:101D30008092980040C080919000806280939000D3
:101D400090929B0080929A0036C0809190008860AB
:101D50008093900090929D0080929C002CC0809176
:101D6000C00080688093C0008091C0008F7B80930A
:101D7000C0002093CF001FC08091C000806280937C
:101D8000C0002093D00017C08091C200886080936B
:101D9000C2008091C2008B7F8093C2002093D2004A
:101DA0000AC020E88216910414F460E001C061E0EA
:101DB000892F0E949C0769EF87E591E00E94040249
:101DC00063E087E591E00E9404026CE087E591E022
:101DD0000E9404026091AF0187E591E00E94040235
:101DE0006091AD01BECE8091CC01282F30E03093C0
:101DF000B6012093B5016091CD0170E0762F662782
:101E00009091CE01690F711D7093AC016093AB018D
:101E10002091D10130E0322F22279091D201290F59
:101E2000311D032E000C440B550B2093A70130935A
:101E3000A8014093A9015093AA012115310541053C
:101E4000510519F420E030E0A9010E94080869EF6B
:101E500087E591E00E94040261E087E591E00E943D
:101E600004026EE07ECE8091CC01282F30E03093CA
:101E7000B6012093B50190910C01981321C0E6EAB8
:101E8000F1E094912FEF20930C01913071F050F01C
:101E9000933089F09430A1F4909172009F7B9093DD
:101EA00072000EC010926E000BC090916F009D7F6B
:101EB00090936F0005C0909171009D7F9093710089
:101EC00060E00E949C0769EF87E591E00E940402B0
:101ED00061E087E591E00E94040260E142CE0E9449
:101EE000CC0AC114D10409F487CC0E94000078CC3C
:101EF000AA1BBB1B51E107C0AA1FBB1FA617B70730
:101F000010F0A61BB70B881F991F5A95A9F780954B
:101F10009095BC01CD010895A1E21A2EAA1BBB1B0E
:101F2000FD010DC0AA1FBB1FEE1FFF1FA217B307A5
:101F3000E407F50720F0A21BB30BE40BF50B661FBB
:101F4000771F881F991F1A9469F76095709580957F
:101F500090959B01AC01BD01CF010895052E97FB23
:101F60001EF400940E94C50F57FD07D00E948C0FED
:101F700007FC03D04EF40C94C50F50954095309556
:101F800021953F4F4F4F5F4F0895909580957095E5
:101F900061957F4F8F4F9F4F0895EE0FFF1F059064
:101FA000F491E02D09940E94DE0FA59F900DB49F3F
:101FB000900DA49F800D911D11240895A29FB00142
:101FC000B39FC001A39F700D811D1124911DB29F6D
:0E1FD000700D811D1124911D0895F894FFCF0E
:101FDE00FFFFFFFF00E1000000000000FF00000017
:101FEE000004022B061A028D02AB02590200C180B8
:041FFE00810000005E
:00000001FF
