:1000000036C1000064C1000062C1000060C1000090
:100010005EC100005CC100005AC1000058C1000070
:1000200056C1000054C1000052C1000050C1000080
:100030004EC1000039C300004AC1000048C10000A1
:1000400046C1000044C1000042C1000040C10000A0
:100050003EC100003CC100003AC10000E3C3000003
:1000600036C10000A9C300007EC3000030C10000FB
:100070002EC100002CC100002AC1000028C10000D0
:1000800026C1000024C1000022C1000020C10000E0
:100090001EC100001CC100001AC1000018C10000F0
:1000A00016C1000014C1000012C1000010C1000000
:1000B0000EC100000CC100000AC1000008C1000010
:1000C00006C1000004C1000002C1000000C1000020
:1000D000FEC00000FCC00000FAC00000F8C0000034
:1000E000F6C00000A502A80297029B02A102DF024F
:1000F000AC02B002B602BA02BE02C402C802CC020E
:10010000DF02D202D602DA02110A300C240A300CC5
:10011000620A300C840A300CB20A300CF40A300C3B
:10012000D70B300C140C1F0B240B290B330B3D0B7E
:10013000B60B470B4F0B570B610B6B0B750B840BFF
:100140008E0BB60B980BA20BAC0B00002100240009
:1001500027002A002D0030003300010100000401B7
:1001600007010A0100002200250028002B002E00B4
:100170003100340002010000050108010B010200FA
:100180000020002300260029002C002F0032000050
:100190000100000301060109010505050507050821
:1001A000080808020202020A0A08080404040401FA
:1001B000010101010101010303030303030303041C
:1001C0000707070C0C0C0C0C0C0C0C0202020206AC
:1001D000060606060606060B0B0B0B0B0B0B0B019C
:1001E0000210202008081020401020408002010248
:1001F0000108040201010204081020408080402010
:10020000100804020180040201804020100804024A
:1002100001080402010102040810204080010204C8
:10022000081020408000000A0B02090C0D0E080780
:1002300003040100000000000000000000000000B6
:1002400000000000000000000000000000000000AE
:10025000001211100000000000000000000000006B
:10026000000000000000000000000000340C112419
:100270001FBECFEFD1E2DEBFCDBF00E00CBF12E06A
:10028000A0E0B2E0E4EBF9E100E00BBF02C00790B0
:100290000D92A231B107D9F723E0A2E1B2E001C08B
:1002A0001D92A534B207E1F711E0C7E3D1E000E009
:1002B00006C021970109802FFE010E94B30CC633AE
:1002C000D10780E00807A9F7F5D60C94D80C98CE92
:1002D000CF92DF92EF92FF920F931F93CF93DF9312
:1002E0006C017A018B01C0E0D0E0CE15DF0589F00A
:1002F000D8016D918D01D601ED91FC910190F081B5
:10030000E02DC6011995892B11F47E0102C02196BA
:10031000ECCFC701DF91CF911F910F91FF90EF902C
:10032000DF90CF900895FC01918D828D981761F038
:10033000828DDF01A80FB11D5D968C91928D9F5F1C
:100340009F73928F90E008958FEF9FEF0895FC01C7
:10035000918D828D981731F0828DE80FF11D858D7A
:1003600090E008958FEF9FEF0895FC01918D228D0D
:10037000892F90E0805C9F4F821B91098F73992792
:10038000089588EA92E0F1DF21E0892B09F420E06A
:10039000822F0895FC01848DDF01A80FB11DA35A9F
:1003A000BF4F2C91848D90E001968F739927848F95
:1003B000A689B7892C93A089B1898C9180648C938C
:1003C000938D848D981306C00288F389E02D808177
:1003D0008F7D80830895EF92FF920F931F93CF93A9
:1003E000DF93EC0181E0888F9B8D8C8D981305C085
:1003F000E889F989808185FD23C0F62E0B8D10E0F8
:100400000F5F1F4F0F731127E02E8C8DE8120BC06A
:100410000FB607FCFACFE889F989808185FFF5CF0F
:10042000CE01B8DFF2CF8B8DFE01E80FF11DE35A4C
:10043000FF4FF0820B8FEA89FB898081806207C0C1
:10044000EE89FF896083E889F989808180648083EF
:1004500081E090E0DF91CF911F910F91FF90EF909D
:100460000895CF93DF93EC01888D8823C1F0EA894A
:10047000FB89808185FD05C0A889B9898C9186FD9D
:100480000EC00FB607FCF5CF808185FFF2CFA8899B
:10049000B9898C9185FFEDCFCE017CDFE8CFDF916C
:1004A000CF91089580E090E0892B19F06ADF8111E7
:1004B00025C080E090E0892B41F080E090E0892B1E
:1004C00021F00E94000081111CC080E090E0892B87
:1004D00041F080E090E0892B21F00E940000811122
:1004E00013C080E090E0892BA1F080E090E0892BA0
:1004F00081F00E94000081110AC008950E9400004E
:10050000D8CF0E940000E1CF0E940000EACF0C94F7
:100510000000089590E0FC013197E231F10508F008
:100520004EC08827EE58FF4F8F4F0C94B30C80912C
:1005300080008F7703C0809180008F7D8093800042
:10054000089580918000877FF9CF84B58F7702C0AE
:1005500084B58F7D84BD08958091B0008F7703C0EE
:100560008091B0008F7D8093B000089580919000BD
:100570008F7707C0809190008F7D03C0809190009D
:10058000877F8093900008958091A0008F7707C0A7
:100590008091A0008F7D03C08091A000877F809311
:1005A000A0000895809120018F7707C080912001DD
:1005B0008F7D03C080912001877F80932001089563
:1005C0001F93CF93DF93282F30E0F901EB5DFD4FB0
:1005D0008491F901E152FE4FD491F901E756FE4FA3
:1005E000C491CC23C1F0162F811194DFEC2FF0E0E1
:1005F000EE0FFF1FEC59FE4FA591B4918FB7F89401
:10060000111105C09C91ED2FE095E92302C0EC91FA
:10061000ED2BEC938FBFDF91CF911F9108959091B7
:10062000000298133DC0EEE7F1E0E4919FEF909354
:100630000002E230C9F050F4EE2399F0E13081F588
:1006400090916F009D7F90936F002AC0E43019F164
:10065000E0F0E53029F5909173009D7F9093730051
:100660001FC010926E001CC0909170009D7F9093EF
:10067000700091E09093B0009091B100987F9460E9
:100680009093B1001092B3000BC0909171009D7FC8
:100690009093710005C0909172009D7F90937200BD
:1006A00060E08ECF0E94D40C1F920F920FB60F9273
:1006B00011240BB60F922F933F934F935F936F9339
:1006C0007F938F939F93AF93BF93EF93FF9380910B
:1006D000410290914202A0914302B0914402892BC1
:1006E0008A2B8B2B51F180914002E0913E02F091D8
:1006F0003F0290818927808380914102909142023C
:10070000A0914302B0914402181619061A061B065E
:10071000BCF48091410290914202A0914302B091B9
:1007200044020197A109B1098093410290934202CA
:10073000A0934302B093440203C0809100026FDF94
:10074000FF91EF91BF91AF919F918F917F916F91A9
:100750005F914F913F912F910F900BBE0F900FBE65
:100760000F901F9018951F920F920FB60F921124A1
:100770000BB60F922F933F934F935F936F937F939B
:100780008F939F93AF93BF93EF93FF9388EA92E089
:1007900001DEFF91EF91BF91AF919F918F917F917A
:1007A0006F915F914F913F912F910F900BBE0F90E2
:1007B0000FBE0F901F9018951F920F920FB60F92B9
:1007C00011240BB60F922F938F939F93EF93FF9368
:1007D000E091B802F091B9028081E091BE02F091FF
:1007E000BF0282FD12C090818091C1028F5F8F7322
:1007F0002091C202821751F0E091C102F0E0E85569
:10080000FD4F958F8093C10201C08081FF91EF91D0
:100810009F918F912F910F900BBE0F900FBE0F9055
:100820001F9018951F920F920FB60F9211242F93BD
:100830003F938F939F93AF93BF93809117029091B3
:100840001802A0911902B0911A023091160223E009
:10085000230F2D3720F40196A11DB11D05C026E8F8
:10086000230F0296A11DB11D20931602809317023B
:1008700090931802A0931902B0931A028091120269
:1008800090911302A0911402B09115020196A11D3E
:10089000B11D8093120290931302A0931402B0939F
:1008A0001502BF91AF919F918F913F912F910F9022
:1008B0000FBE0F901F901895682F88EA92E08BCD9D
:1008C000682F88EA92E087CDCF93DF9390E0FC0118
:1008D000E152FE4F2491FC01E756FE4F849188239C
:1008E00061F190E0880F991FFC01E65BFE4FC59116
:1008F000D491FC01EC59FE4FA591B491611109C04E
:100900009FB7F8948881209582238883EC912E23C9
:100910000BC0623061F49FB7F8943881822F8095C4
:1009200083238883EC912E2B2C939FBF06C08FB717
:10093000F894E8812E2B28838FBFDF91CF91089503
:100940003F924F925F926F927F928F929F92AF925F
:10095000BF92CF92DF92EF92FF920F931F93CF93AC
:10096000DF9300D01F92CDB7DEB729013A019091F5
:100970000002981721F09F3F09F025C304C0EEE75D
:10098000F1E0349004C180930002EEE7F1E0E491DD
:10099000EF3F09F418C3E23009F480C074F5EE2388
:1009A00009F45BC0E13009F0F1C0109280001092B0
:1009B00081009091810098609093810090918100D6
:1009C000916090938100282F30E0F901E756FE4FA7
:1009D000E491F0E0EE0FFF1FEC59FE4F459154916A
:1009E0005093260240932502F901E152FE4FE49113
:1009F000E093240233243394CCC0E43009F49EC045
:100A00000CF474C0E53009F0C1C0109220011092BE
:100A100021019091210198609093210190912101F1
:100A2000916090932101482F50E0FA01E756FE4F64
:100A3000E491F0E0EE0FFF1FEC59FE4F2591349149
:100A400030931D0220931C02FA01E152FE4FE49103
:100A5000E0931B02B5E03B2E9CC014BC15BC94B5C2
:100A6000926094BD95B5916095BD282F30E0F90155
:100A7000E756FE4FE491F0E0EE0FFF1FEC59FE4FFA
:100A8000459154915093290240932802F901E15273
:100A9000FE4FE491E0932702312C7BC01092B0000E
:100AA0001092B1009091B00092609093B00090913C
:100AB000B10091609093B100282F30E0F901E75622
:100AC000FE4FE491F0E0EE0FFF1FEC59FE4F459111
:100AD000549150933F0240933E02F901E152FE4F80
:100AE000E491E093400252E0352E53C01092900002
:100AF0001092910090919100986090939100909144
:100B00009100916090939100282F30E0F901E75611
:100B1000FE4FE491F0E0EE0FFF1FEC59FE4F4591C0
:100B200054915093230240932202F901E152FE4F67
:100B3000E491E093210223E0322E2BC01092A0001A
:100B40001092A1009091A10098609093A1009091C3
:100B5000A10091609093A100282F30E0F901E756A1
:100B6000FE4FE491F0E0EE0FFF1FEC59FE4F459170
:100B700054915093200240931F02F901E152FE4F1D
:100B8000E491E0931E0204E0302E03C03E2E37FCB9
:100B90001AC28B0161E098DE4801A12CB12C832D93
:100BA0008D7F09F0B5C060E072E18AE790E0A501B1
:100BB0009401BDD629833A834B835C8369017A0112
:100BC00021E0C21AD108E108F1088FEFC816D1045C
:100BD000E104F10409F008F449C060E472E48FE034
:100BE00090E0A5019401A3D669017A0191E0C91AA8
:100BF000D108E108F108E2E03E121FC0FFEFCF1676
:100C0000D104E104F10409F008F4DBC160E970EDFE
:100C100083E090E0A50194018AD669017A0181E020
:100C2000C81AD108E108F1089FEFC916D104E10400
:100C3000F10409F0C8F583E064C0EFEFCE16D104EB
:100C4000E104F104A9F0A0F068E478EE81E090E01E
:100C5000A50194016CD669017A01F1E0CF1AD1089F
:100C6000E108F108332009F454C1A2C181E001C0B8
:100C700082E03320A1F045C089819A81AB81BC819B
:100C80002AE0B595A795979587952A95D1F76C0198
:100C90007D01F1E0CF1AD108E108F10885E095B5B2
:100CA000987F892B85BDA2C068E478EE81E090E052
:100CB000A50194013CD669017A0181E0C81AD108E6
:100CC000E108F1089FEFC916D104E104F10409F02D
:100CD00008F41DC164E274EF80E090E0A501940186
:100CE00026D669017A0181E0C81AD108E108F10825
:100CF0009FEFC916D104E104F10411F008F02AC1F4
:100D000085E09091B100987F892B8093B1006EC0EF
:100D100060E072E18AE790E0A501940108D66901DC
:100D20007A01F1E0CF1AD108E108F108C114D10429
:100D300021E0E206F10480F068E478EE81E090E0E2
:100D4000A5019401F4D569017A0181E0C81AD1089E
:100D5000E108F10883E001C081E091E0391210C0A0
:100D600090918100987F892B8093810041145104D8
:100D70006104710409F03FC02FEF3FEFA9016FC07C
:100D8000E3E03E120FC090919100987F892B8093F1
:100D90009100411451046104710469F52FEF3FEF94
:100DA000A9017FC0F4E03F120FC09091A100987F8D
:100DB000892B8093A1004114510461047104D9F47A
:100DC0002FEF3FEFA9017FC025E032120FC09091B5
:100DD0002101987F892B80932101411451046104E2
:100DE000710449F42FEF3FEFA9017FC04114510472
:100DF0006104710461F0D801AA0FBB1FA301920125
:100E0000BAD528EE33E040E050E06FD503C02FEFB5
:100E10003FEFA90182E03816A1F1831534F03320A9
:100E200079F091E03916D9F0CEC0E4E03E1609F42D
:100E30004AC03E16B4F1F5E03F1609F456C0C3C0EF
:100E4000C7BC20933A0230933B0240933C0250933C
:100E50003D0280916E00826080936E00B4C0D0929B
:100E60008900C09288002093360230933702409365
:100E700038025093390280916F00826080936F0036
:100E8000A2C0C092B300209341023093420240932B
:100E900043025093440280917000826080937000FE
:100EA00092C0D0929900C092980020933202309361
:100EB0003302409334025093350280917100826076
:100EC0008093710080C0D092A900C092A8002093A6
:100ED0002E0230932F0240933002509331028091C2
:100EE00072008260809372006EC0D0922901C0921D
:100EF000280120932A0230932B0240932C02509316
:100F00002D02809173008260809373005CC084E046
:100F1000F8CE2FEFC216D104E104F104C9F0C0F0FD
:100F200062E17AE780E090E0A501940100D56901D3
:100F30007A01E1E0CE1AD108E108F108FFEFCF16FF
:100F4000D104E104F10411F008F096CE84E0A7CEBC
:100F500083E0A5CE62E17AE780E090E0A50194010C
:100F6000E6D469017A0181E0C81AD108E108F108E4
:100F70009FEFC916D104E104F104C1F0B8F08981F2
:100F80009A81AB81BC814AE0B595A79597958795E5
:100F90004A95D1F76C017D01E1E0CE1AD108E10854
:100FA000F108332009F47ACE87E0ABCE86E061CE3B
:100FB000EFEFCE16D104E104F10409F058F684E015
:100FC00058CE82E09ECE0F900F900F900F90DF9141
:100FD000CF911F910F91FF90EF90DF90CF90BF9036
:100FE000AF909F908F907F906F905F904F903F90C9
:100FF00008956FEE88EA92E0EED96FEE88EA92E00B
:10100000EAD96FEE88EA92E0E6D988EA92E029CA46
:10101000CF92DF92EF92FF920F931F93CF93DF93C4
:1010200000D01F92CDB7DEB79FB7F894C0901702DB
:10103000D0901802E0901902F0901A029FBF082F7A
:1010400010E088EA92E049835A836B837C838DD9D0
:1010500049815A816B817C8180179107A4F42FB755
:10106000F8948091170290911802A0911902B09102
:101070001A022FBF8C199D09AE09BF098417950765
:10108000A607B707F0F288EA92E06FD980179107B8
:101090001CF4AFDF80E001C081E00F900F900F9053
:1010A0000F90DF91CF911F910F91FF90EF90DF9004
:1010B000CF900895789484B5826084BD84B58160B2
:1010C00084BD85B5826085BD85B5816085BD809113
:1010D0006E00816080936E0010928100809181008B
:1010E0008260809381008091810081608093810083
:1010F000809180008160809380008091B100846045
:101100008093B1008091B00081608093B0008091A5
:101110009100826080939100809191008160809322
:101120009100809190008160809390008091A10057
:1011300082608093A1008091A10081608093A100D2
:101140008091A00081608093A00080912101826045
:101150008093210180912101816080932101809100
:10116000200181608093200180917A0084608093C7
:101170007A0080917A00826080937A0080917A0070
:10118000816080937A0080917A00806880937A00F1
:101190001092C100E091B802F091B90282E0808320
:1011A000E091B402F091B5021082E091B602F091A4
:1011B000B70280E180831092C002E091BC02F091FE
:1011C000BD0286E08083E091BA02F091BB0280818B
:1011D00080618083E091BA02F091BB0280818860D7
:1011E0008083E091BA02F091BB02808180688083A5
:1011F000E091BA02F091BB0280818F7D80830FEF76
:1012000010E0E8E6F2E0119242E0E83AF407D9F79C
:1012100088EA92E0AAD80497D8F388EA92E083D8C3
:10122000809367028F3F09F01CC388EA92E07BD865
:10123000809367028E3F09F014C388EA92E073D866
:10124000809367028D3F09F00CC388EA92E06BD867
:10125000809367028C3F09F004C38CEF90E030DB91
:101260008DEF90E02DDB8EEF90E02ADB8FEF90E0AA
:1012700027DB88EA92E0F5D84AEF50E060E070E0C2
:1012800083E0C6DE882309F4ECC288EA92E04BD8FA
:101290008B3F910509F0E5C288EA92E044D8F82E28
:1012A0008093660288EA92E03ED8EC01E82E8093B3
:1012B0006502682F88EA92E08ED86F2D88EA92E066
:1012C0008AD86BEF88EA92E086D888EA92E0C9D89B
:1012D00048EE53E060E070E08C2F8C5F99DE88234D
:1012E00009F4BFC2F8E6CF2EF2E0DF2EDD275E0163
:1012F000B3E0AB0EB11CC60188569240A816B906E1
:101300003CF088EA92E00FD8D6018D936D01F3CFBF
:101310002296FE01E859FD4FC080C0926402F5019B
:10132000E859FD4FD080D092630248EE53E060E070
:1013300070E081E06DDE882309F493C288EA92E0D0
:101340000E9493018A3F910509F08BC2E8E6AE2E18
:10135000E2E0BE2EE0E0F0E020E030E0C50188569B
:1013600092408C179D0780F4D5018D915D01A901F4
:10137000480F511DCA01B801A4D29C018E0F9F1FB6
:10138000B8019FD2FC01EACFFE2FEE272E2B3F2B78
:101390003093620220936102F901FF27F09360020B
:1013A000E0935F02232F332730935E0220935D0288
:1013B000C9018E0F9F1FB80184D29801281B390BD9
:1013C00030935C0220935B02C9018E0F9F1FB8010E
:1013D00078D2A801481B590B50935A0240935902E6
:1013E0008C2D90E02817390709F03AC28D2D90E036
:1013F0004817590709F034C280916802F81230C2C8
:1014000080916902E8122CC28F2D90E0FC01319787
:10141000EF30F10508F024C28827EC57FF4F8F4FBB
:10142000A2C269EF88EA92E00E94EB0183E090E0BB
:1014300047DA62E088EA92E00E94EB0181E090E006
:101440003BDA80E090E0B1C1E0906A02F12CF092CA
:101450005802E0925702F701EB5DFD4F8491F701CE
:10146000E152FE4FD491F701E756FE4FC491CC23D1
:1014700089F081114FD8EC2FF0E0EE0FFF1FE158FB
:10148000FE4FA591B491EC91ED23D1E0C0E021F4A1
:10149000D0E002C0D0E0C0E0D0935502C093560225
:1014A00069EF88EA92E00E94EB0183E090E008DABD
:1014B00064E088EA92E00E94EB01C701FDD98D2F1C
:1014C0009C2F73C180916A02E82EF12CF092540295
:1014D000E0925302C0916B02D0E0D0935602C093C9
:1014E0005502209711F460E004C0C130D10511F419
:1014F00061E066D869EF88EA92E00E94EB0183E040
:1015000090E0DED966E026C080916A02E82EF12CD8
:10151000F0925402E0925302C0916B02D0E0D0935B
:101520005602C0935502209711F460E009C0C13003
:10153000D10511F462E004C0C230D10511F461E0BC
:10154000C3D969EF88EA92E00E94EB0183E090E062
:10155000B7D968E088EA92E00E94EB01C701ACD9F4
:10156000CE0123C180916A02282F30E030935202CD
:1015700020935102863308F0865390917B00282FE8
:101580002870977F922B90937B0087708064809364
:101590007C0080917A00806480937A0080917A0048
:1015A00086FDFCCFC091780080917900D0E0D82BE7
:1015B000D0935002C0934F0269EF88EA92E00E94F4
:1015C000EB0184E090E07CD96AE088EA92E00E9436
:1015D000EB0180915102909152026ED98D2F90E0D3
:1015E0006BD9CE019927E1C0D0906A02ED2CF12C85
:1015F000F0924E02E0924D02C0906B02CC2DD0E0F2
:10160000D0934C02C0934B0261E08D2D5DD92097A1
:1016100009F4AFC0CF3FD10509F4ADC0F701EB5DD0
:10162000FD4FE4914E2F50E0FA013197E231F10580
:1016300008F09CC08827ED56FF4F8F4F94C184B5AA
:10164000806884BDC7BC9BC084B5806284BDC8BCB3
:1016500096C080918000806880938000D09389003C
:10166000C09388008CC0809180008062809380004D
:10167000D0938B00C0938A0082C0809180008860E4
:1016800080938000D0938D00C0938C0078C08091AF
:10169000B00080688093B000C092B30070C08091A9
:1016A000B00080628093B000C092B40068C08091A6
:1016B0009000806880939000D0939900C093980028
:1016C0005EC080919000806280939000D0939B00D8
:1016D000C0939A0054C080919000886080939000DD
:1016E000D0939D00C0939C004AC08091A000806868
:1016F0008093A0008091A0008F7B8093A000D09366
:10170000A900C093A8003BC08091A0008062809394
:10171000A000D093AB00C093AA0031C08091A0007C
:1017200088608093A000D093AD00C093AC0027C028
:1017300080912001806880932001D0932901C0937B
:1017400028011DC080912001806280932001D093E8
:101750002B01C0932A0113C08091200188608093DF
:101760002001D0932D01C0932C0109C0C038D105B0
:1017700014F460E001C061E08D2D0E94E00269EF89
:1017800088EA92E00E94EB0183E090E099D86CE057
:1017900088EA92E00E94EB0180914D0290914E0206
:1017A0008BD880914B0290914C0286D854C0809186
:1017B0006A02282F30E03093540220935302609144
:1017C0006B0270E0762F662790916C02690F711D95
:1017D00070934A026093490220916F0230E0322FE9
:1017E000222790917002290F311D032E000C440B0B
:1017F000550B209345023093460240934702509385
:101800004802211531054105510519F420E030E069
:10181000A90196D869EF88EA92E00E94EB0181E085
:1018200090E04ED86EE013C080916A02282F30E01D
:1018300030935402209353020E940F0369EF88EA09
:1018400092E00E94EB0181E090E03AD860E188EA02
:1018500092E00E94EB0188EA92E00E94310201C00E
:10186000C8DB0E945202CDCCE8EAF2E01382128279
:1018700088EE93E0A0E0B0E084839583A683B783ED
:1018800085E092E09183808385EC90E09587848762
:1018900084EC90E09787868780EC90E0918B808B3A
:1018A00081EC90E0938B828B82EC90E0958B848B23
:1018B00086EC90E0978B868B118E128E138E148E91
:1018C0000895AA1BBB1B51E107C0AA1FBB1FA61787
:1018D000B70710F0A61BB70B881F991F5A95A9F7D9
:1018E00080959095BC01CD010895A1E21A2EAA1B06
:1018F000BB1BFD010DC0AA1FBB1FEE1FFF1FA217C0
:10190000B307E407F50720F0A21BB30BE40BF50BBC
:10191000661F771F881F991F1A9469F76095709545
:10192000809590959B01AC01BD01CF010895052ED6
:1019300097FB16F400940FD057FD05D0D6DF07FCB7
:1019400002D046F408C050954095309521953F4F00
:101950004F4F5F4F089590958095709561957F4F9B
:101960008F4F9F4F0895EE0FFF1F881F8BBF07906B
:10197000F691E02D199409D0A59F900DB49F900D7C
:10198000A49F800D911D11240895A29FB001B39FC3
:10199000C001A39F700D811D1124911DB29F700D78
:1019A000811D1124911D089581E090E0F89400C0FC
:0419B000F894FFCFD9
:1019B400FF00000000EB016801B5019301A70131AC
:0219C40002001F
:00000001FF
