:100000000C9478000C94A0000C94A0000C94A00018
:100010000C94A0000C94A0000C94A0000C941F025F
:100020000C94A0000C94A0000C94A0000C94A000D0
:100030000C94A0000C94A0000C94A0000C94A000C0
:100040000C94D3020C94A0000C94A1020C947B029B
:100050000C94A0000C94A0000C94A0000C94A000A0
:100060000C94A0000C94A0000208B00A1708B00A73
:100070003108B00A5C08B00A8508B00AC808B00A9E
:100080004709B00A8609B00A9B09B00ACD09B00A2F
:10009000410A00000000240027002A0000000000A0
:1000A00023002600290001020408102040800102DC
:1000B00004081020010204081020000000002500A0
:1000C00028002B00040404040404040402020202B5
:1000D00002020303030303030200000008000201FD
:1000E0000000030407000000000000000000B50A43
:1000F00011241FBECFEFD8E0DEBFCDBF11E0A0E0DE
:10010000B1E0ECEBF6E102C005900D92A231B1072F
:10011000D9F722E0A2E1B1E001C01D92A733B207F6
:10012000E1F710E0C8E7D0E004C02197FE010E948B
:10013000370BC737D107C9F70E945C060C945C0BDC
:100140000C940000CF92DF92EF92FF920F931F93D7
:10015000CF93DF936C017A018B01C0E0D0E0CE1524
:10016000DF0589F0D8016D918D01D601ED91FC91EB
:100170000190F081E02DC6010995892B11F47E01D3
:1001800002C02196ECCFC701DF91CF911F910F9153
:10019000FF90EF90DF90CF900895FC01918D828DBC
:1001A000981761F0828DDF01A80FB11D5D968C91CB
:1001B000928D9F5F9F73928F90E008958FEF9FEFD6
:1001C0000895FC01918D828D981731F0828DE80F92
:1001D000F11D858D90E008958FEF9FEF0895FC014C
:1001E000918D228D892F90E0805C9F4F821B910919
:1001F0008F73992708958AE991E00E94EF0021E02A
:10020000892B09F420E0822F0895FC01848DDF0101
:10021000A80FB11DA35ABF4F2C91848D90E0019679
:100220008F739927848FA689B7892C93A089B18968
:100230008C9180648C93938D848D981306C0028872
:10024000F389E02D80818F7D80830895EF92FF9266
:100250000F931F93CF93DF93EC0181E0888F9B8DE9
:100260008C8D981305C0E889F989808185FD24C0AB
:10027000F62E0B8D10E00F5F1F4F0F731127E02E2E
:100280008C8DE8120CC00FB607FCFACFE889F9890B
:10029000808185FFF5CFCE010E940501F1CF8B8DC6
:1002A000FE01E80FF11DE35AFF4FF0820B8FEA8940
:1002B000FB898081806207C0EE89FF896083E889BD
:1002C000F98980818064808381E090E0DF91CF9123
:1002D0001F910F91FF90EF900895CF93DF93EC0162
:1002E000888D8823C9F0EA89FB89808185FD05C056
:1002F000A889B9898C9186FD0FC00FB607FCF5CF90
:10030000808185FFF2CFA889B9898C9185FFEDCFD7
:10031000CE010E940501E7CFDF91CF91089580E0E3
:1003200090E0892B29F00E94FB0081110C940000C1
:100330000895833081F028F4813099F08230A1F063
:1003400008958730A9F08830B9F08430D1F48091D5
:1003500080008F7D03C0809180008F778093800024
:10036000089584B58F7702C084B58F7D84BD0895CC
:100370008091B0008F7703C08091B0008F7D809313
:10038000B00008951F93CF93DF93282F30E0F90139
:10039000E752FF4F8491F901EA55FF4FD491F901DB
:1003A000EC53FF4FC491CC23C9F0162F81110E944A
:1003B0009901EC2FF0E0EE0FFF1FE654FF4FA591DF
:1003C000B4918FB7F894111105C09C91ED2FE09571
:1003D000E92302C0EC91ED2BEC938FBFDF91CF911D
:1003E0001F91089590910001981324C0E8EDF0E06A
:1003F000E4919FEF90930001E130B9F098F0E23082
:10040000C9F4909170009D7F9093700091E090935B
:10041000B0009091B100987F94609093B1001092D9
:10042000B30008C010926E0005C090916F009D7FD0
:1004300090936F0060E00C94C2010E94570B1F92D2
:100440000F920FB60F9211242F933F934F935F9308
:100450006F937F938F939F93AF93BF93EF93FF938C
:1004600080912C0190912D01A0912E01B0912F012E
:10047000892B8A2B8B2B51F180912B01E091290143
:10048000F0912A0190818927808380912C0190919D
:100490002D01A0912E01B0912F01181619061A06F0
:1004A0001B06C4F480912C0190912D01A0912E0186
:1004B000B0912F010197A109B10980932C0190936C
:1004C0002D01A0932E01B0932F0104C08091000153
:1004D0000E94F201FF91EF91BF91AF919F918F9197
:1004E0007F916F915F914F913F912F910F900FBE30
:1004F0000F901F9018951F920F920FB60F92112414
:100500002F933F934F935F936F937F938F939F931B
:10051000AF93BF93EF93FF938AE991E00E940501A7
:10052000FF91EF91BF91AF919F918F917F916F91CB
:100530005F914F913F912F910F900FBE0F901F90A1
:1005400018951F920F920FB60F9211242F938F932D
:100550009F93EF93FF93E091AA01F091AB0180810B
:10056000E091B001F091B10182FD12C090818091C3
:10057000B3018F5F8F732091B401821751F0E09126
:10058000B301F0E0E656FE4F958F8093B30101C0B2
:100590008081FF91EF919F918F912F910F900FBECE
:1005A0000F901F9018951F920F920FB60F92112463
:1005B0002F933F938F939F93AF93BF938091170196
:1005C00090911801A0911901B0911A013091160172
:1005D00023E0230F2D3720F40196A11DB11D05C086
:1005E00026E8230F0296A11DB11D209316018093CA
:1005F000170190931801A0931901B0931A018091EB
:10060000120190911301A0911401B091150101966E
:10061000A11DB11D8093120190931301A0931401A9
:10062000B0931501BF91AF919F918F913F912F9101
:100630000F900FBE0F901F901895682F8AE991E0D8
:100640000C942601682F8AE991E00C942601CF933F
:10065000DF93282F30E0F901E752FF4F8491F90131
:10066000EA55FF4FD491F901EC53FF4FC491CC23CD
:1006700091F081110E949901EC2FF0E0EE0FFF1F25
:10068000E456FF4FA591B491EC91ED2381E090E009
:1006900021F480E002C080E090E0DF91CF910895E6
:1006A000CF93DF9390E0FC01EA55FF4F2491FC01CA
:1006B000EC53FF4F8491882361F190E0880F991FDC
:1006C000FC01EE56FF4FC591D491FC01E654FF4F5B
:1006D000A591B491611109C09FB7F89488812095C4
:1006E00082238883EC912E230BC0623061F49FB784
:1006F000F8943881822F809583238883EC912E2B68
:100700002C939FBF06C08FB7F894E8812E2B2883C7
:100710008FBFDF91CF9108953F924F925F926F927A
:100720007F928F929F92AF92BF92CF92DF92EF9281
:10073000FF920F931F93CF93DF9300D000D0CDB7DC
:10074000DEB790910001981721F09F3F09F036C263
:1007500004C0E8EDF0E0349081C080930001E8ED42
:10076000F0E0E491EF3F09F429C2E13031F1E230E9
:1007700009F44BC0E11171C014BC15BC94B5926072
:1007800094BD95B5916095BDA82FB0E0FD01EC53E7
:10079000FF4FE491F0E0EE0FFF1FE654FF4F05918D
:1007A00014911093200100931F01FD01EA55FF4FA2
:1007B000E491E0931E01312C53C0109280001092FE
:1007C00081009091810098609093810090918100C8
:1007D000916090938100A82FB0E0FD01EC53FF4F92
:1007E000E491F0E0EE0FFF1FE654FF4F05911491E6
:1007F00010931D0100931C01FD01EA55FF4FE49188
:10080000E0931B01332433942BC01092B00010925C
:10081000B1009091B00092609093B0009091B100BF
:1008200091609093B100A82FB0E0FD01EC53FF4F11
:10083000E491F0E0EE0FFF1FE654FF4F0591149195
:1008400010932A0100932901FD01EA55FF4FE4911D
:10085000E0932B0102E0302E03C03E2E37FCAEC1E8
:1008600029013A018B0161E00E9450034801A12C4B
:10087000B12C832D8D7F09F0BBC060E072E18AE767
:1008800090E0A50194010E94180B29833A834B83C1
:100890005C8369017A0121E0C21AD108E108F108FC
:1008A0008FEFC816D104E104F10409F008F44CC03C
:1008B00060E472E48FE090E0A50194010E94180BBF
:1008C00069017A01E1E0CE1AD108E108F108F2E00D
:1008D0003F1220C02FEFC216D104E104F10409F049
:1008E00008F46AC160E970ED83E090E0A50194012D
:1008F0000E94180B69017A0181E0C81AD108E10849
:10090000F108EFEFCE16D104E104F10409F0D0F5BF
:1009100083E067C0FFEFCF16D104E104F104B1F02A
:10092000A8F068E478EE81E090E0A50194010E94CF
:10093000180B69017A0181E0C81AD108E108F108B1
:10094000332009F4DFC02FC181E001C082E03320F1
:10095000A1F047C089819A81AB81BC812AE0B5951D
:10096000A795979587952A95D1F76C017D0121E090
:10097000C21AD108E108F10885E095B5987F892B66
:1009800085BD6FC068E478EE81E090E0A501940138
:100990000E94180B69017A01F1E0CF1AD108E10831
:1009A000F1082FEFC216D104E104F10409F008F4B4
:1009B000A7C064E274EF80E090E0A50194010E947A
:1009C000180B69017A01E1E0CE1AD108E108F108BB
:1009D000FFEFCF16D104E104F10411F008F0B4C028
:1009E00085E09091B100987F892B8093B10039C048
:1009F00060E072E18AE790E0A50194010E94180B83
:100A000069017A0181E0C81AD108E108F108C1142E
:100A1000D104E1E0EE06F10488F068E478EE81E0CC
:100A200090E0A50194010E94180B69017A01F1E0A0
:100A3000CF1AD108E108F10893E001C091E021E06C
:100A400032120FC080918100887F892B80938100B2
:100A5000411451046104710449F42FEF3FEFA901DF
:100A60002DC0411451046104710471F0D801AA0F22
:100A7000BB1FA30192010E943D0B28EE33E040E032
:100A800050E00E94F60A03C02FEF3FEFA90181E07A
:100A90003816A1F0E2E03E1619F131108FC0C7BC44
:100AA000209325013093260140932701509328017C
:100AB00080916E00826080936E0080C0D092890029
:100AC000C09288002093210130932201409323019A
:100AD0005093240180916F00826080936F006EC0FC
:100AE000C092B30020932C0130932D0140932E012E
:100AF00050932F01809170008260809370005EC0DF
:100B000084E06FCFFFEFCF16D104E104F104D1F000
:100B1000C8F062E17AE780E090E0A50194010E94CC
:100B2000180B69017A0181E0C81AD108E108F108BF
:100B3000EFEFCE16D104E104F10411F008F00ACF72
:100B400084E01BCF83E019CF62E17AE780E090E098
:100B5000A50194010E94180B69017A0181E0C81A6D
:100B6000D108E108F108EFEFCE16D104E104F10459
:100B7000C1F0B8F089819A81AB81BC814AE0B5951A
:100B8000A795979587954A95D1F76C017D0121E04E
:100B9000C21AD108E108F108332009F4EDCE87E04C
:100BA00020CF86E0D4CEFFEFCF16D104E104F104CC
:100BB00009F050F684E0CBCE82E013CF0F900F9077
:100BC0000F900F90DF91CF911F910F91FF90EF90B9
:100BD000DF90CF90BF90AF909F908F907F906F905D
:100BE0005F904F903F9008956FEE8AE991E00E94E8
:100BF00026016FEE8AE991E00E9426016FEE8AE9F4
:100C000091E00E9426018AE991E00C946D01CF9257
:100C1000DF92EF92FF920F931F93CF93DF9300D059
:100C200000D0CDB7DEB79FB7F894C0901701D09031
:100C30001801E0901901F0901A019FBF082F10E0F1
:100C40008AE991E049835A836B837C830E94EF0099
:100C500049815A816B817C8180179107A4F42FB759
:100C6000F8948091170190911801A0911901B09109
:100C70001A012FBF8C199D09AE09BF09841795076A
:100C8000A607B707E8F28AE991E00E94EF00801713
:100C9000910724F40E94F40580E001C081E00F90E8
:100CA0000F900F900F90DF91CF911F910F91FF90B8
:100CB000EF90DF90CF900895789484B5826084BDE2
:100CC00084B5816084BD85B5826085BD85B5816050
:100CD00085BD80916E00816080936E0010928100CE
:100CE0008091810082608093810080918100816089
:100CF000809381008091800081608093800080914A
:100D0000B10084608093B1008091B00081608093D5
:100D1000B00080917A00846080937A0080917A009C
:100D2000826080937A0080917A00816080937A005B
:100D300080917A00806880937A001092C100E091DF
:100D4000AA01F091AB0182E08083E091A601F091CD
:100D5000A7011082E091A801F091A90180E18083B0
:100D60001092B201E091AE01F091AF0186E0808374
:100D7000E091AC01F091AD01808180618083E091D0
:100D8000AC01F091AD01808188608083E091AC017D
:100D9000F091AD01808180688083E091AC01F09199
:100DA000AD0180818F7D8083EE24EA94F12CA2E056
:100DB000CA2EEAE5F1E0119241E0EA39F407D9F7E9
:100DC0008AE991E00E94EF000497D0F38AE991E06C
:100DD0000E94CD00809359018F3F09F0C3C38AE977
:100DE00091E00E94CD00809359018E3F09F0BAC373
:100DF0008AE991E00E94CD00809359018D3F09F06E
:100E0000B1C38AE991E00E94CD00809359018C3FE3
:100E100009F0A8C38CEF90E00E9422038DEF90E0D0
:100E20000E9422038EEF90E00E9422038FEF90E059
:100E30000E9422038AE991E00E946D014AEF50E08E
:100E400060E070E083E00E940706882309F48AC30B
:100E50008AE991E00E94CD008B3F910509F082C3A1
:100E60008AE991E00E94CD00C82F809358018AE959
:100E700091E00E94CD008C01982E80935701682F3D
:100E80008AE991E00E9426016C2F8AE991E00E9494
:100E900026016BEF8AE991E00E9426018AE991E040
:100EA0000E946D0148EE53E060E070E084E0800F46
:100EB0000E940706882309F455C3EAE56E2EE1E097
:100EC0007E2E11275801B3E0AB0EB11CC3018A5529
:100ED0009140A816B90644F08AE991E00E94CD003D
:100EE000D3018D933D01F2CF0E5F1F4FF801E65AFB
:100EF000FE4FD080D0925601F501E65AFE4FD081C8
:100F0000D093550148EE53E060E070E081E00E942C
:100F10000706882309F426C38AE991E00E94CD00E0
:100F20008A3F910509F01EC37AE5A72E71E0B72E1E
:100F3000E0E0F0E020E030E0C5018A559140801704
:100F4000910790F4D5018D915D01A901480F511DC4
:100F5000CA01B7010E94E20A9C018E0F9F1FB701D0
:100F60000E94E20AFC01E8CFFE2FEE272E2B3F2B3A
:100F70003093540120935301F901FF27F09352015C
:100F8000E0935101232F33273093500120934F01D9
:100F9000C9018E0F9F1FB7010E94E20A9701281B0B
:100FA000390B30934E0120934D01C9018E0F9F1FC5
:100FB000B7010E94E20AA701481B590B50934C014C
:100FC00040934B018D2D90E02817390709F0C8C2D6
:100FD0008D2F90E04817590709F0C2C280915A013D
:100FE000C813BEC280915B019812BAC28C2F90E0E8
:100FF000FC013197E531F10508F0B2C2EC5CFF4F1E
:101000000C94370B69EF8AE991E00E94260183E096
:1010100090E00E94220362E08AE991E00E942601AA
:1010200081E090E00E941D0382E090E0B3C18091D6
:101030005C01082F10E010934A01009349010E94BF
:101040002703EC01909348018093470169EF8AE9F7
:1010500091E00E94260183E090E00E94220364E078
:1010600023C080915C01082F10E01093460100938B
:101070004501C0915D01D0E0D0934801C093470184
:10108000209711F460E004C0C130D10519F461E08B
:101090000E94C20169EF8AE991E00E94260183E083
:1010A00090E00E94220366E08AE991E00E94260116
:1010B000C8010E941D036DC180915C01082F10E0E2
:1010C0001093460100934501C0915D01D0E0D0939B
:1010D0004801C0934701209711F460E009C0C13076
:1010E000D10511F462E004C0C230D10519F461E009
:1010F0000E94500369EF8AE991E00E94260183E093
:1011000090E00E94220368E0CFCF80915C01282FFD
:1011100030E030934401209343018E3008F08E502C
:1011200087702091010150E4259F90011124822BAA
:1011300080937C0080917A00806480937A00809113
:101140007A0086FDFCCFC091780080917900D0E0D4
:10115000D82BD0934201C093410169EF8AE991E015
:101160000E94260184E090E00E9422036AE08AE95E
:1011700091E00E94260180914301909144010E94D8
:101180001D038D2F90E00E941D03CE01992702C1FF
:1011900010915C01C12FD0E0D0934001C0933F017A
:1011A00000915D01A02EB12CB0923E01A0923D01B4
:1011B00061E0812F0E945003A114B10409F448C0DA
:1011C0008FEFA816B10409F445C0FE01E752FF4FA6
:1011D000E491E330F9F048F4E130B9F0E230A1F500
:1011E00084B5806284BD08BD39C0E730E9F0E830DD
:1011F00019F1E43049F5809180008062809380008D
:10120000B0928B00A0928A0029C084B5806884BD0A
:1012100007BD24C080918000806880938000B092D8
:101220008900A09288001AC08091B00080688093E5
:10123000B0000093B30012C08091B0008062809330
:10124000B0000093B4000AC090E8A916B10414F4E9
:1012500060E001C061E0812F0E94C20169EF8AE96C
:1012600091E00E94260183E090E00E9422036CE05E
:101270008AE991E00E94260180913F01909140010E
:101280000E941D0380913D0190913E0183C0809199
:101290005C01282F30E03093460120934501609196
:1012A0005D0170E0762F662790915E01690F711DD8
:1012B00070933C0160933B012091610130E0322F3B
:1012C000222790916201290F311D032E000C440B3F
:1012D000550B2093370130933801409339015093D7
:1012E0003A01211531054105510519F420E030E09E
:1012F000A9010E948C0369EF8AE991E00E9426010E
:1013000081E090E00E9422036EE021C180915C01A7
:10131000282F30E030934601209345010E94F201CE
:1013200069EF8AE991E00E94260181E090E00E9445
:10133000220360E10CC1C0915C01D0E0D093360182
:10134000C0933501209711F481E00DC0C130D10563
:1013500049F0C230D10519F4C09201010CC0C3306C
:10136000D10521F483E08093010105C0C430D1058B
:1013700011F41092010169EF8AE991E00E942601BF
:1013800082E090E00E94220362E18AE991E00E94FB
:101390002601CE010E941D03DEC000915C01A02E3B
:1013A000B12CB0924601A0924501C0915D018C2EF6
:1013B000912C9092340180923301D0915E01D093B0
:1013C000320110915F0110933101D1113AC0412CCB
:1013D000512C612E712CB301042C02C075956795B8
:1013E0000A94E2F761707727802F0E94C20161E0C2
:1013F0008C2F0E94C20160E08C2F0E94C201AFEFCF
:101400004A1A5A0AB8E04B16510429F769EF8AE9DB
:1014100091E00E94260185E090E00E94220364E1B1
:101420008AE991E00E942601C5010E941D03C401C2
:101430000E941D036D2F8AE991E00E942601612F11
:1014400086C0D13019F787E0482E512C612E712CBF
:10145000B301042C02C0759567950A94E2F7617098
:101460007727802F0E94C20161E08C2F0E94C20169
:1014700060E08C2F0E94C201E1E04E1A510840F753
:10148000C5CF70905C01872C912C90924601809280
:101490004501C0915D01AC2EB12CB0923401A092F7
:1014A0003301D0915E01D0933201D1111AC000E016
:1014B00010E0D12C61E08C2F0E94C201872D0E9488
:1014C0002703002E01C0880F0A94EAF7D82A60E0AB
:1014D0008C2F0E94C2010F5F1F4F0830110551F77A
:1014E00019C0D130C9F407E010E0D12C61E08C2F95
:1014F0000E94C201872D0E942703002E01C0880F81
:101500000A94EAF7D82A60E08C2F0E94C2010150A9
:10151000110960F7D092300169EF8AE991E00E94E9
:10152000260185E090E00E94220366E18AE991E0CD
:101530000E942601C4010E941D03C5010E941D03D3
:101540006D2F8AE991E00E942601609130018AE9BD
:1015500091E00E9426018AE991E00E946D0102C09B
:101560000E94F4050E948F0124CCEAE9F1E0138285
:10157000128288EE93E0A0E0B0E084839583A68396
:10158000B78386E091E09183808385EC90E0958736
:10159000848784EC90E09787868780EC90E0918B3D
:1015A000808B81EC90E0938B828B82EC90E0958B2A
:1015B000848B86EC90E0978B868B118E128E138E27
:1015C000148E0895AA1BBB1B51E107C0AA1FBB1FA5
:1015D000A617B70710F0A61BB70B881F991F5A95BF
:1015E000A9F780959095BC01CD010895A1E21A2E2E
:1015F000AA1BBB1BFD010DC0AA1FBB1FEE1FFF1FB7
:10160000A217B307E407F50720F0A21BB30BE40B06
:10161000F50B661F771F881F991F1A9469F760954D
:101620007095809590959B01AC01BD01CF01089507
:10163000052E97FB1EF400940E942F0B57FD07D038
:101640000E94F60A07FC03D04EF40C942F0B509521
:101650004095309521953F4F4F4F5F4F089590959E
:101660008095709561957F4F8F4F9F4F0895EE0F36
:10167000FF1F0590F491E02D09940E94480BA59F4F
:10168000900DB49F900DA49F800D911D112408957D
:10169000A29FB001B39FC001A39F700D811D1124B3
:1016A000911DB29F700D811D1124911D089581E03F
:0C16B00090E0F8940C945C0BF894FFCFD1
:1016BC00FF01000000002601A200EF00CD00E100B8
:0216CC006D01AE
:00000001FF
